:020000040000FA
:100000003804001069010000710100007301000054
:100010007501000077010000790100000000000078
:100020000000000000000000000000007B01000054
:100030007D010000000000007F0100008101000040
:1000400083010000830100008301000083010000A0
:100050008301000083010000830100008301000090
:100060008301000083010000750500000F070000F8
:10007000B508000083010000830100008301000037
:100080008301000083010000830100008301000060
:100090008301000083010000830100008301000050
:1000A0008301000083010000830100008301000040
:1000B0008301000083010000830100008301000030
:1000C00083010000830100008301000000F002F8BA
:1000D00000F03AF80AA090E8000C82448344AAF1A8
:1000E0000107DA4501D100F02FF8AFF2090EBAE8A6
:1000F0000F0013F0010F18BFFB1A43F0010318475C
:10010000C8010000E8010000103A24BF78C878C197
:10011000FAD8520724BF30C830C144BF04680C600D
:10012000704700000023002400250026103A28BF55
:1001300078C1FBD8520728BF30C148BF0B60704759
:100140001FB51FBD10B510BD00F081F81146FFF7B7
:10015000F7FF00F027F800F09FF803B4FFF7F2FF75
:1001600003BC00F0A3F80000094880470948004795
:10017000FEE7FEE7FEE7FEE7FEE7FEE7FEE7FEE757
:10018000FEE7FEE704480549034A054B70470000B7
:1001900001030000CD0000003802001038040010F8
:1001A0003802001000F020F900F0AEFC00F0D6FCA0
:1001B00000F006FD06202049486000201F494860E5
:1001C000A0201F4981F8400000211D4880F84110FF
:1001D000552180F84210AA2180F84310122180F89E
:1001E0004410342180F84510012000F01BFD00244C
:1001F00000E0641CB4F5001FFBD3002403E00021E1
:1002000010480155641C402CF9D302200A4948606B
:1002100004200A494860A020094981F840000021D3
:10022000074880F84110A12180F84210012000F019
:10023000F9FC00BFFEE70000CC010010C001001077
:10024000400000104001001070477047704775462D
:1002500000F028F8AE4605006946534620F0070036
:10026000854618B020B5FFF78DFFBDE820404FF060
:1002700000064FF000074FF000084FF0000B21F090
:100280000701AC46ACE8C009ACE8C009ACE8C0095D
:10029000ACE8C0098D4670470446AFF300802046A5
:1002A000FFF75BFF00487047D80100100149182094
:1002B000ABBEFEE7260002007047000000C0014010
:1002C00000C0054000000A40C80C000000000010FB
:1002D0001C00000008010000E40C00001C000010DD
:1002E0001C040000240100000000000000000000C9
:1002F000000000000000000000000000FFFFFFFF02
:1003000000202021884A116000BF8749096811F048
:10031000400FFAD00321854A11604FF00001844A52
:10032000C2F8A811834A11604FF00101824A11609E
:100330004FF00B01814A11604FF00101A2F104025C
:1003400011604FF0AA017E4A11604FF05501784AC2
:10035000C2F88C1078490968022906D000BF794993
:10036000096811F0806FFAD004E0002000E0401C22
:100370006428FCD90321744A11604FF0AA016C4A29
:10038000C2F88C104FF055016D4A11604FF02301F7
:100390006E4A11604FF00101A2F1040211604FF0AA
:1003A000AA016B4A11604FF05501116000BF694905
:1003B000096811F4806FFAD00321674A11604FF089
:1003C000AA015B4AC2F8AC104FF05501604A1160B7
:1003D0006249634A11604FF00001624A116043F2C2
:1003E0003A01534A1160704756480068C0F30160F3
:1003F000032868D15048006810F0030006D0012897
:1004000023D002283FD003285CD100E000BF4D4834
:100410000068C0F30E0000F101004FEA40014448BB
:10042000D0F88800C0F3074000F10100B1FBF0F004
:100430004D4900FB01F03D490968C9B201F10101D4
:10044000B0FBF1F0494908603CE03E480068C0F369
:100450000E0000F101004FEA40013548D0F8880055
:10046000C0F3074000F10100B1FBF0F0404900FB90
:1004700001F02E490968C9B201F10101B0FBF1F0A8
:100480003A4908601EE02F480068C0F30E0000F1F2
:1004900001004FEA40012648D0F88800C0F3074029
:1004A00000F10100B1FBF0F04FF4FA4100FB01F064
:1004B0001E490968C9B201F10101B0FBF1F02B49F5
:1004C000086000BF2FE01C48006810F0030006D051
:1004D000012810D0022819D0032823D100E000BF42
:1004E00012480068C0B200F101001F49B1FBF0F0F2
:1004F0001E49086016E00D480068C0B200F1010016
:100500001B49B1FBF0F0194908600BE0074800688F
:10051000C0B200F101004FF4FA41B1FBF0F0134911
:10052000086000BF00BF7047A0C10F4004C10F406A
:1005300000C00F40ACC10F400CC10F4084C00F4041
:100540008CC00F4088C00F4080C00F40A4C00F4037
:10055000ACC00F40A8C00F40A0C00F40DE872804E9
:10056000C4C00F40C8C10F4000093D00000000108A
:10057000001BB70010B50020FE4A1060FE4840681E
:10058000C1B211F0070F77D1C8100C2874D2DFE880
:1005900000F0B4061525AA3D5EB568AB7B97002038
:1005A000F64A10601068421CF44B1A60F44A125C60
:1005B000F14B9A6028201A469061A6E00020F14A8B
:1005C0001060EE4A1068421CEC4B1A60EC4A125C58
:1005D000E94B9A6028201A46906196E0EA48006844
:1005E000012806D11020E44A10600720E74A106075
:1005F00008E0E24A1068421CE04B1A60E04A125CD4
:10060000DD4B9A600820DC4A90617EE0DE4800689D
:10061000DA4A1268904209D9D84A1068421CD74B6E
:100620001A60D74A125CD44B9A600CE0D848006834
:1006300018B12020D04A106005E01020CE4A10608A
:100640000C20D24A10600820CB4A90615DE0102057
:10065000C94A10600920CD4A10600820C64A90613E
:1006600053E0CB480268C7480068401C824204D966
:100670000420C14A106003E03FE00420BE4A9061BC
:100680000820BD4A906140E0BB4A9268D3B2BD4A9F
:100690001068421CBB4C2260BE4A1354BC4802681E
:1006A00020460068401C824203D90420B24A1060F0
:1006B00002E00420B04A90610820AF4A906124E033
:1006C000AD4A9268D3B2AF4A1068421CAD4C22606A
:1006D000B04A13540C20AD4A10601020A64A106096
:1006E0000820906111E000BF1020A34A106008208C
:1006F000A64A1060A04A906107E000BF0A20A34A02
:10070000106008209C4A906100BF00BF10BD10B56A
:100710000020984A5060A0484068C1B211F0070F0D
:1007200070D1C8100C286DD2DFE800F0BA06162789
:10073000B04062BB6DB17F9C0020984A1060106889
:10074000421C964B1A608E4A4032125C924B9A6061
:1007500028201A469061ABE00020914A10608F4A31
:100760001068421C8D4B1A60854A4032125C8A4BDD
:100770009A6028201A4690619AE0834840680128D0
:1007800006D11020844A10600720804A506009E09A
:10079000824A1068421C814B1A60794A4032125CCE
:1007A0007D4B9A6008207C4A906181E076484068E1
:1007B0007A4A126890420AD9784A1068421C774BEC
:1007C0001A606F4A4032125C734B9A600CE07048BA
:1007D000406818B12020704A106005E010206E4A71
:1007E00010600C20694A506008206B4A90615FE0FD
:1007F0001020694A10600920644A50600820664A47
:10080000906155E04CE06248426865480068401CD1
:10081000824203D90420604A106002E004205E4A4C
:10082000906108205C4A906142E05B4A9268D3B2D2
:100830005B4A1068421C5A4C2260564A403213549C
:100840005348426820460068401C824203D9042075
:10085000514A106002E004204F4A906108204E4A3D
:10086000906125E04C4A9268D3B24D4A1068421C10
:100870004B4C2260474A403213540C20434A50608C
:100880001020454A10600820906111E000BF102040
:10089000414A106008203D4A50603F4A906107E09D
:1008A00000BF0A20394A506008203B4A906100BFCF
:1008B00000BF10BD10B500202E4A90603948406836
:1008C000C1B211F0070F73D1C8100C2870D2DFE845
:1008D00000F0D6061627CC4081D78BCD9DB90020DD
:1008E000314A10601068421C2F4B1A60244A803233
:1008F000125C2C4B9A6028201A469061C7E00020B9
:100900002A4A1060284A1068421C274B1A601C4A69
:100910008032125C234B9A6028201A469061B6E020
:1009200019488068012806D110201E4A106007204F
:10093000164A906009E01C4A1068421C1A4B1A6063
:100940000F4A8032125C174B9A600820154A90615A
:100950009DE00D488068144A1268904229D9124AD5
:100960001068421C104B1A60054A8032125C0D4B15
:100970009A602BE02800001000C001401000001019
:100980004000001004000010CC0100101C000010FA
:10099000C00100100001001000C00540140000104C
:1009A0000800001000000A40180000100C000010A1
:1009B00065E0B948806818B12020B84A106005E0A9
:1009C0001020B64A10600C20B54A90600820B34A47
:1009D00090615CE01020B14A10600920B04A90603C
:1009E0000820AE4A906152E0AB488268AD4800688A
:1009F000401C824203D90420A84A106002E004206F
:100A0000A64A90610820A54A906140E0A34A9268F6
:100A1000D3B2A44A1068421CA24C2260A24A1354CA
:100A20009D48826820460068401C824203D9042009
:100A30009A4A106002E00420984A90610820974A80
:100A4000906124E0954A9268D3B2964A1068421C9D
:100A5000944C2260944A13540C20914A90601020C8
:100A60008E4A10600820906111E000BF10208B4A70
:100A7000106008208A4A9060884A906107E000BFB1
:100A80000A20874A90600820844A906100BF00BF16
:100A900010BD014600200022844B43F82120202273
:100AA000834B53F821301A6016E07D4A52F821201A
:100AB000012A01D1012010E07C4A52F821206FF078
:100AC0007F439A4201D3002007E0784A52F8212060
:100AD000521C764B43F82120E7E700BF70470146E0
:100AE0001020734A52F8212010600820704A52F8F2
:100AF0002120906100BF6E4850F82100006810F07E
:100B0000100FF8D10120704710B56A48006840F016
:100B100080006949C1F8C4006848406820F07070DE
:100B2000664948600846406840F0A07048604FF051
:100B30006C00634988616148C06F20F005005F491F
:100B4000C8674FF080005E49486108614FF00A00B5
:100B500000F095F840205A49086010BD10B555487E
:100B6000006840F400205449C1F8C400534840686C
:100B700020F47070514948600846406840F4707035
:100B800048600846406C20F4707048640846406C29
:100B900040F4207048640846806E40F4C0108866B7
:100BA0004FF06C00474988614FF080004861086150
:100BB0004FF00B0000F063F840204249086010BD80
:100BC00010B53C48006840F080603B49C1F8C40063
:100BD0003A48006820F47000384908600846006808
:100BE00040F4200008600846006C20F4700008649F
:100BF0000846006C40F4200008640846806E40F40B
:100C0000406088664FF06C00244988614FF0800096
:100C1000486108614FF00C0000F031F840201F4996
:100C2000086010BD01462020214A52F821201060A2
:100C300006201B4A42F8210012E01C4850F821000F
:100C40006FF07F42904204D30B20154A42F82100F6
:100C50000BE0164850F82100401C144A42F82100CD
:100C60000F4850F821000628E7D000BF2020104A86
:100C700052F8212090610A4850F82100704700F096
:100C80001F020121914042094FF0E02303EB820251
:100C9000C2F8001170470000C001001000000A40B7
:100CA0001C0000100C000010800100102800001033
:100CB000BC020000C4C00F4000C00F4000C0024092
:100CC00000C0014000C0054000093D0000000000D8
:100CD0000000000000000000000000000000000014
:040CE0000000000010
:04000005000000CD2A
:00000001FF
