:020000040000FA
:10000000700200106901000071010000730100001E
:100010007501000077010000790100000000000078
:100020000000000000000000000000007B01000054
:100030007D010000000000007F0100008101000040
:1000400083010000830100008301000083010000A0
:100050008301000083010000830100008301000090
:1000600083010000A501000083010000830100005E
:100070008301000083010000830100008301000070
:100080008301000083010000830100008301000060
:100090008301000083010000830100008301000050
:1000A0008301000083010000830100008301000040
:1000B0008301000083010000830100008301000030
:1000C00083010000830100008301000000F002F8BA
:1000D00000F03AF80AA090E8000C82448344AAF1A8
:1000E0000107DA4501D100F02FF8AFF2090EBAE8A6
:1000F0000F0013F0010F18BFFB1A43F0010318475C
:100100000805000028050000103A24BF78C878C10F
:10011000FAD8520724BF30C830C144BF04680C600D
:10012000704700000023002400250026103A28BF55
:1001300078C1FBD8520728BF30C148BF0B60704759
:100140001FB51FBD10B510BD00F038FA1146FFF7FE
:10015000F7FF00F00FFA00F0B4F803B4FFF7F2FF76
:1001600003BC00F0B9F8000009488047094800477F
:10017000FEE7FEE7FEE7FEE7FEE7FEE7FEE7FEE757
:10018000FEE7FEE704480549034A054B70470000B7
:1001900001030000CD00000070000010700200108C
:1001A000700000104249086810F0010F04D0414966
:1001B0000968491C3F4A11603D49096801433C4AAE
:1001C0001160704730B50246012A2BD10020394B0F
:1001D000186041F25550384B18610220344B58607A
:1001E0000020D860012058611846816101EB810030
:1001F0000623B0FBF3F02E4BD86148000323B0FB7D
:10020000F3F02B4B1862480858620320B1FBF0F062
:1002100018640620B1FBF0F05864002098647F2039
:10022000186501E0002030BD092001238340440906
:100230004FF0E02505EB8404C4F8003100BF012035
:10024000F1E710B5012821D1194B996101EB810328
:100250000624B3FBF4F31344154CE3614B00032471
:10026000B3FBF4F31344124C236202EB51036362B9
:100270000323B1FBF3F3134423640623B1FBF3F32D
:100280001344636423469A647F23236510BD0128C9
:1002900005D14FF4FC41064AD164092151607047F1
:1002A000012803D10021024AD16451607047000047
:1002B000008001400800001000C0024070477047F5
:1002C00070470446AFF300802046FFF746FF00006A
:1002D000004870470C00001001491820ABBEFEE733
:1002E000260002007047000000000000000000002F
:1002F000000000000000000000000000FFFFFFFF02
:1003000000202021884A116000BF8749096811F048
:10031000400FFAD00321854A11604FF00001844A52
:10032000C2F8A811834A11604FF00101824A11609E
:100330004FF00B01814A11604FF00101A2F104025C
:1003400011604FF0AA017E4A11604FF05501784AC2
:10035000C2F88C1078490968022906D000BF794993
:10036000096811F0806FFAD004E0002000E0401C22
:100370006428FCD90321744A11604FF0AA016C4A29
:10038000C2F88C104FF055016D4A11604FF02301F7
:100390006E4A11604FF00101A2F1040211604FF0AA
:1003A000AA016B4A11604FF05501116000BF694905
:1003B000096811F4806FFAD00321674A11604FF089
:1003C000AA015B4AC2F8AC104FF05501604A1160B7
:1003D0006249634A11604FF00001624A116043F2C2
:1003E0003A01534A1160704756480068C0F30160F3
:1003F000032868D15048006810F0030006D0012897
:1004000023D002283FD003285CD100E000BF4D4834
:100410000068C0F30E0000F101004FEA40014448BB
:10042000D0F88800C0F3074000F10100B1FBF0F004
:100430004D4900FB01F03D490968C9B201F10101D4
:10044000B0FBF1F0494908603CE03E480068C0F369
:100450000E0000F101004FEA40013548D0F8880055
:10046000C0F3074000F10100B1FBF0F0404900FB90
:1004700001F02E490968C9B201F10101B0FBF1F0A8
:100480003A4908601EE02F480068C0F30E0000F1F2
:1004900001004FEA40012648D0F88800C0F3074029
:1004A00000F10100B1FBF0F04FF4FA4100FB01F064
:1004B0001E490968C9B201F10101B0FBF1F02B49F5
:1004C000086000BF2FE01C48006810F0030006D051
:1004D000012810D0022819D0032823D100E000BF42
:1004E00012480068C0B200F101001F49B1FBF0F0F2
:1004F0001E49086016E00D480068C0B200F1010016
:100500001B49B1FBF0F0194908600BE0074800688F
:10051000C0B200F101004FF4FA41B1FBF0F0134911
:10052000086000BF00BF7047A0C10F4004C10F406A
:1005300000C00F40ACC10F400CC10F4084C00F4041
:100540008CC00F4088C00F4080C00F40A4C00F4037
:10055000ACC00F40A8C00F40A0C00F40DE872804E9
:10056000C4C00F40C8C10F4000093D00000000108A
:10057000001BB7004FF496640025FFF735FF0021FC
:100580000120FFF71FFE012801D000BFFEE72A4629
:1005900021460120FFF755FE0120FFF778FE0AE013
:1005A0000548006838B10020034908602A46214602
:1005B0000120FFF746FEF3E7080000107546FFF73D
:1005C00087FEAE4605006946534620F00700854683
:1005D00018B020B5FFF7D6FDBDE820404FF000066B
:1005E0004FF000074FF000084FF0000B21F007011B
:1005F000AC46ACE8C009ACE8C009ACE8C009ACE85E
:10060000C0098D4670470000280600000000001059
:100610000C00000008010000340600000C0000106F
:10062000640200002401000000093D0000000000F9
:0406300000000000C6
:04000005000000CD2A
:00000001FF
