:020000040000FA
:100000000080001011020000190200001B02000015
:100010001D0200001F02000021020000000000007D
:1000200000000000000000000000000023020000AB
:100030002502000000000000270200002902000045
:100040002B0200002B0200002B0200002B020000FC
:100050002B0200002B0200002B0200002B020000EC
:100060002B0200002B0200002B0200002B020000DC
:100070002B0200002B0200002B0200002B020000CC
:100080002B0200002B0200002B0200002B020000BC
:100090002B0200002B0200002B0200002B020000AC
:1000A0002B0200002B0200002B0200002B0200009C
:1000B0002B0200002B0200002B0200002B0200008C
:1000C0002B02000000F002F800F099F80AA090E876
:1000D000000C82448344AAF10107DA4501D100F003
:1000E0008EF8AFF2090EBAE80F0013F0010F18BF37
:1000F000FB1A43F001031847AC720000CC720000F9
:10010000103A24BF78C878C1FAD8520724BF30C843
:1001100030C144BF04680C60704700000023002415
:1001200000250026103A28BF78C1FBD8520728BF07
:1001300030C148BF0B6070476E2903F0758170298C
:1001400002F0B884662906F00287652906F0FF866A
:10015000672906F0FC866129AFF3008003681B0A5B
:1001600028BF41F08001692902F02684642902F049
:100170002384752902F020846F2903F05B8278299B
:1001800002F08484E92903F0F381E42903F0F0818B
:10019000F52903F0ED81EF2903F05882F82902F0E8
:1001A00083840368DB0928BF41F08001632904F0E0
:1001B0001780732904F01C80E32904F02780F329B9
:1001C00004F02C80002070471FB59DE8030003F069
:1001D00035F804F091FA04000020002106F09EF9A1
:1001E000401C60600020002106F082F9E06003F00E
:1001F00087FC02F0E3FF1FBD002005F0CDFA05F0FB
:10020000EFFA1146FFF7E0FF04F0C1FF05F0E8FB4D
:100210000648804706480047FEE7FEE7FEE7FEE7A0
:10022000FEE7FEE7FEE7FEE7FEE7FEE7D55100004A
:10023000C500000070B5064600F058F8056806F1E4
:100240000B0020F00704B4429CBF002070BD2B4679
:100250006A68BAB11068A04210D304F1080188425C
:100260003CBF5068586007D351681019416011684D
:10027000091B016058601460101D70BD1346526860
:10028000002AE7D12146284602F0C4FF0028DED12B
:1002900070BD70B50446051F00F028F80068002CFA
:1002A00014BF446870BD002C18BFAC423CBF204650
:1002B0006468F8D301680A18AA4218BF456003D1E0
:1002C0002A6805461144016028684119A1421CBFF3
:1002D0006C6070BD6168696021680844286070BD09
:1002E0000B460146184603F0D3B80000004870479B
:1002F000940200100048704798020010FFFFFFFFB3
:100300000021F84A01E01160491C8142FBD370478B
:100310002DE9FC4704460AA81D46B0E8000716462A
:100320000F4602F07CFA04F19101CDE9001094F837
:1003300090100E233B22204602F0DAF934F8910F98
:1003400040BA3880608840BA3080A08840BA28809F
:10035000208940BAA8F80000608940BAA9F80000D6
:10036000A08940BAAAF80000BDE8FC871CB5044685
:1003700002F055FA04F19101CDE9001094F89010C3
:1003800002234122204602F0B3F9B4F8910040BAAA
:1003900000B21CBD3EB5044602F041FA02220092B2
:1003A00004F19101CDE9011094F8901004231B226F
:1003B000204602F0EBF994F891003EBD3EB50446AC
:1003C00002F02DFA0622009204F19101CDE901100C
:1003D000134694F890107522204602F0D7F994F84D
:1003E00091003EBD10B5FFF7E9FF342801D0002091
:1003F00010BD012010BD08B50623009190F89010A3
:100400006B2202F00EFA08BD1CB50222CDE90021D4
:1004100090F8901004231C2202F025FA1CBD1CB594
:100420000222CDE9002190F8901004231B2202F053
:100430001AFA1CBD1CB50322CDE9002190F89010DA
:1004400002236B2202F00FFA1CBD10B504460121F5
:10045000FFF7F0FF00212046FFF7E1FF00212046D3
:10046000FFF7D2FF2046BDE810400021C3E710B5DA
:1004700002F024F99C4A0023511E4C3004F0A6FFE0
:100480004C38682180F8901010BD2DE9F047B4B0C9
:100490000020ADF8C800ADF8B800ADF8BC00ADF86C
:1004A000C000ADF8C400ADF8B40005A8FFF7DFFF49
:1004B00005A8FFF7CAFF05A8FFF794FF05A8FFF7F7
:1004C00069FF024689A18B4804F0DAFFDFF8288231
:1004D000DFF828928A4E00244FF4AA754FF4801A50
:1004E00005A8FFF743FF90FBF5F006F004F942463C
:1004F0004B4606F029F806F0CFF807B22DAA32A92C
:1005000031A88DE8070030AB2FAA2EA905A8FFF768
:10051000FFFEBDF9B400BDF9C8106E38D639CDE97B
:100520000210BDF9C420BDF9C000121F0192A0F550
:1005300070500B38BDF9BC30BDF9B820009004975D
:10054000A3F20E23A2F2CF326EA16A4804F098FF04
:100550005046FFF7D5FE641CB442C1DD18A804F074
:100560005DFF443804F05AFF34B00020BDE8F08746
:1005700010B50C4602F0A2F85B4A0023511E4C3025
:1005800004F024FF4C3880F8904010BD1CB50446A0
:1005900002F045F904F19101CDE9001094F89010B2
:1005A00007230122204602F0D7F894F891001CBDE1
:1005B00008B50723009190F89010012202F031F95C
:1005C00008BD38B5044602F02AF9009094F890105E
:1005D00004F191031922204602F0B6F894F8910034
:1005E00038BD0B4690F89010192202F00FB93EB5B5
:1005F000044602F014F90322009204F19101CDE9BE
:10060000011094F8901005231A22204602F0BEF83B
:1006100094F891003EBD1CB50322CDE9002190F86D
:10062000901005231A2202F01EF91CBD3EB50446A7
:1006300002F0F5F80322009204F19101CDE90110D6
:1006400094F8901002231A22204602F09FF894F8A2
:1006500091003EBD1CB50322CDE9002190F8901019
:1006600002231A2202F0FFF81CBD1CB5044602F05A
:10067000D6F804F19101CDE9001094F89010072309
:100680001C22204602F068F894F89100002800D05F
:1006900001201CBD08B50723009190F890101C2282
:1006A00002F0BFF808BD1CB5044602F0B8F804F12A
:1006B0009101CDE9001094F8901006231C222046E9
:1006C00002F04AF894F89100002800D001201CBDE7
:1006D00008B50623009190F890101C2202F0A1F8B2
:1006E00008BD0000C800001003C0092074657374C1
:1006F0003D25640004010010A4703D0AD743424028
:1007000080969800256409256409256409256409F3
:1007100025640925640925640A0000001CB5044607
:1007200002F07DF804F19101CDE9001094F89010E9
:1007300005231C22204602F00FF894F891000028AF
:1007400000D001201CBD08B50523009190F8901041
:100750001C2202F066F8C3E73EB5044602F05FF8DB
:100760000222009204F19101CDE9011094F8901059
:1007700004231C22204602F009F894F891003EBDA3
:100780003EB5044602F04BF80322009204F19101B9
:10079000CDE9011094F8901002231C22204601F0AC
:1007A000F5FF94F891003EBD1CB50322CDE9002170
:1007B00090F8901002231C2202F055F81CBD38B5A9
:1007C000044602F02CF8009094F8901004F1910384
:1007D0001D22204601F0B8FF94F8910038BD0B4669
:1007E00090F890101D2202F011B838B5044602F0BE
:1007F00016F8009094F8901004F191031E22204600
:1008000001F0A2FF94F8910038BD0B4690F89010CB
:100810001E2201F0FBBF38B5044602F000F800903C
:1008200094F8901004F191031F22204601F08CFFF0
:1008300094F8910038BD0B4690F890101F2201F0FB
:10084000E5BF38B5044601F0EAFF009094F8901037
:1008500004F191032022204601F076FF94F89100E4
:1008600038BD0B4690F89010202201F0CFBF38B56C
:10087000044601F0D4FF009094F8901004F1910325
:100880002122204601F060FF94F8910038BD0B460C
:1008900090F89010212201F0B9BF38B5044601F05C
:1008A000BEFF009094F8901004F19103222220469C
:1008B00001F04AFF94F8910038BD0B4690F8901073
:1008C000222201F0A3BF1CB5044601F0A8FF04F1E9
:1008D0009101CDE9001094F89010072323222046BF
:1008E00001F03AFF94F89100002800D001201CBDCF
:1008F00008B50723009190F89010232201F091FF92
:10090000EEE61CB5044601F08AFF04F19101CDE941
:10091000001094F8901006232322204601F01CFFBB
:1009200094F89100002800D001201CBD08B50623D2
:10093000009190F89010232201F073FFD0E61CB5CF
:10094000044601F06CFF04F19101CDE9001094F828
:10095000901005232322204601F0FEFE94F891001A
:10096000002800D001201CBD08B50523009190F897
:100970009010232201F055FFB2E61CB5044601F0A9
:100980004EFF04F19101CDE9001094F8901004237A
:100990002322204601F0E0FE94F89100002800D0C8
:1009A00001201CBD08B50423009190F8901023226B
:1009B00001F037FF94E61CB5044601F030FF04F166
:1009C0009101CDE9001094F89010032323222046D2
:1009D00001F0C2FE94F89100002800D001201CBD57
:1009E00008B50323009190F89010232201F019FF1D
:1009F00076E61CB5044601F012FF04F19101CDE941
:100A0000001094F8901002232322204601F0A4FE47
:100A100094F89100002800D001201CBD08B50223E5
:100A2000009190F89010232201F0FBFE58E61CB5CF
:100A3000044601F0F4FE04F19101CDE9001094F8B0
:100A4000901001232322204601F086FE94F89100A5
:100A5000002800D001201CBD08B50123009190F8AA
:100A60009010232201F0DDFE3AE61CB5044601F0A9
:100A7000D6FE04F19101CDE9001094F89010002306
:100A80002322204601F068FE94F89100002800D04F
:100A900001201CBD08B50023009190F8901023227E
:100AA00001F0BFFE1CE61CB5044601F0B8FE04F1DF
:100AB0009101CDE9001094F89010072324222046DC
:100AC00001F04AFE94F89100002800D001201CBDDE
:100AD00008B50723009190F89010242201F0A1FEA0
:100AE000FEE51CB5044601F09AFE04F19101CDE942
:100AF000001094F8901006232422204601F02CFECA
:100B000094F89100002800D001201CBD08B50623F0
:100B1000009190F89010242201F083FEE0E51CB5CE
:100B2000044601F07CFE04F19101CDE9001094F837
:100B3000901005232422204601F00EFE94F8910027
:100B4000002800D001201CBD08B50523009190F8B5
:100B50009010242201F065FEC2E51CB5044601F0A8
:100B60005EFE04F19101CDE9001094F89010042389
:100B70002422204601F0F0FD94F89100002800D0D6
:100B800001201CBD08B50423009190F89010242288
:100B900001F047FEA4E53EB5044601F040FE042204
:100BA000009204F19101CDE9011094F89010032313
:100BB0002422204601F0EAFD94F891003EBD1CB5C8
:100BC0000422CDE9002190F890100323242201F0A3
:100BD0004AFE1CBD38B50D460446032901D9002044
:100BE00038BD01F01CFE009005EB45002530C2B277
:100BF00094F8901004F19103204601F0A5FD94F8BB
:100C0000910038BD30B403290AD801EB41012531E8
:100C1000CCB2134690F89010224630BC01F0F6BDDD
:100C200030BC704738B50D460446032901D9002071
:100C300038BD01F0F4FD009005EB45002630C2B24E
:100C400094F8901004F19103204601F07DFD94F892
:100C5000910038BD30B40329E2D801EB41012631BF
:100C6000CCB2134690F89010224630BC01F0CEBDB5
:100C7000D6E77CB50D460446032901D900207CBD8A
:100C800001F0CDFD04F19101CDE9001005EB450027
:100C90002730C2B294F890100723204601F05CFD83
:100CA00094F891000028EAD001207CBD08B5032902
:100CB00009D801EB410127310092CAB290F8901097
:100CC000072301F0AEFD0BE57CB50D460446032974
:100CD00001D900207CBD01F0A2FD04F19101CDE914
:100CE000001005EB45002730C2B294F8901006239F
:100CF000204601F031FD94F891000028EAD001204F
:100D00007CBD08B5032909D801EB410127310092C8
:100D1000CAB290F89010062301F083FDE0E47CB5A0
:100D20000D460446032901D900207CBD01F077FD62
:100D300004F19101CDE9001005EB45002730C2B266
:100D400094F890100523204601F006FD94F89100D8
:100D50000028EAD001207CBD08B5032909D801EBA1
:100D6000410127310092CAB290F89010052301F09A
:100D700058FDB5E47CB50D460446032901D9002091
:100D80007CBD01F04CFD04F19101CDE9001005EBB3
:100D900045002730C2B294F890100423204601F099
:100DA000DBFC94F891000028EAD001207CBD08B556
:100DB000032909D801EB410127310092CAB290F80A
:100DC0009010042301F02DFD8AE43EB50D46044643
:100DD000032901D900203EBD01F021FD042204F1C8
:100DE00091010092CDE9011005EB45002730C2B218
:100DF00094F890100323204601F0C8FC94F8910069
:100E00003EBD1CB503290BD80423CDE9003201EB0C
:100E100041012731CAB290F89010032301F023FD5D
:100E20001CBD38B5044601F0FAFC009094F890100F
:100E300004F191033122204601F086FC94F89100E0
:100E400038BD0B4690F89010312201F0DFBC38B568
:100E5000044601F0E4FC009094F8901004F1910332
:100E60003222204601F070FC94F8910038BD0B4608
:100E700090F89010322201F0C9BC0B4690F8901007
:100E8000332201F0C3BC1CB5044601F0C8FC04F1D8
:100E90009101CDE9001094F89010072334222046E8
:100EA00001F05AFC94F89100002800D001201CBDEC
:100EB00008B50723009190F89010342201F0B1FC9E
:100EC0000EE41CB5044601F0AAFC04F19101CDE941
:100ED000001094F8901006233422204601F03CFCC8
:100EE00094F89100002800D001201CBD08B506230D
:100EF000009190F89010342201F093FC2BE41CB583
:100F0000044601F08CFC04F19101CDE9001094F845
:100F1000901005233422204601F01EFC94F8910025
:100F2000002800D001201CBD08B50523009190F8D1
:100F30009010342201F075FC0DE43EB5044601F03A
:100F40006EFC0522009204F19101CDE9011094F8A4
:100F5000901004233422204601F018FC94F89100EC
:100F60003EBD1CB50522CDE9002190F89010042368
:100F7000342201F078FC1CBD38B5044601F04FFC6A
:100F8000009094F8901004F191033522204601F06E
:100F9000DBFB94F8910038BD1CB5044601F03FFC22
:100FA00004F19101CDE9001094F890100723362246
:100FB000204601F0D1FB94F89100002800D00120D8
:100FC0001CBD1CB5044601F02AFC04F19101CDE9D9
:100FD000001094F8901006233622204601F0BCFB46
:100FE00094F89100002800D001201CBD1CB50446D7
:100FF00001F015FC04F19101CDE9001094F8901076
:1010000005233622204601F0A7FB94F89100002822
:1010100000D001201CBD1CB5044601F000FC04F109
:101020009101CDE9001094F8901004233622204657
:1010300001F092FB94F89100002800D001201CBD23
:101040001CB5044601F0EBFB04F19101CDE9001061
:1010500094F8901003233622204601F07DFB94F88B
:101060009100002800D001201CBD1CB5044601F0F1
:10107000D6FB04F19101CDE9001094F89010022301
:101080003622204601F068FB94F89100002800D039
:1010900001201CBD1CB5044601F0C1FB04F1910107
:1010A000CDE9001094F8901001233622204601F07B
:1010B00053FB94F89100002800D001201CBD1CB502
:1010C000044601F0ACFB04F19101CDE9001094F865
:1010D000901000233622204601F03EFB94F8910048
:1010E000002800D001201CBD1CB5044601F097FB70
:1010F00004F19101CDE9001094F8901007233722F4
:10110000204601F029FB94F89100002800D001202E
:101110001CBD08B50723009190F89010372201F00C
:1011200080FB0BE41CB5044601F079FB04F191014E
:10113000CDE9001094F8901006233722204601F0E4
:101140000BFB94F89100002800D001201CBD08B5CD
:101150000623009190F89010372201F062FB0BE417
:101160001CB5044601F05BFB04F19101CDE90010D0
:1011700094F8901005233722204601F0EDFA94F8F8
:101180009100002800D001201CBD08B50523009166
:1011900090F89010372201F044FB0BE41CB5044694
:1011A00001F03DFB04F19101CDE9001094F890109D
:1011B00004233722204601F0CFFA94F8910000284A
:1011C00000D001201CBD08B50423009190F89010B8
:1011D000372201F026FB0BE41CB5044601F01FFB8F
:1011E00004F19101CDE9001094F890100323372207
:1011F000204601F0B1FA94F89100002800D00120B7
:101200001CBD08B50323009190F89010372201F01F
:1012100008FB0BE41CB5044601F001FB04F191014D
:10122000CDE9001094F8901002233722204601F0F7
:1012300093FA94F89100002800D001201CBD08B555
:101240000223009190F89010372201F0EAFA0BE4A3
:101250001CB5044601F0E3FA04F19101CDE9001058
:1012600094F8901001233722204601F075FA94F883
:101270009100002800D001201CBD08B50123009179
:1012800090F89010372201F0CCFA0BE41CB504461C
:1012900001F0C5FA04F19101CDE9001094F8901025
:1012A00000233722204601F057FA94F891000028D5
:1012B00000D001201CBD08B50023009190F89010CB
:1012C000372201F0AEFA0BE438B5044601F0A7FA74
:1012D000009094F8901004F191033822204601F018
:1012E00033FA94F8910038BD0B4690F890103822EC
:1012F00001F08CBA1CB5044601F091FA04F1910199
:10130000CDE9001094F8901007233822204601F010
:1013100023FA94F89100002800D001201CBD08B5E4
:101320000723009190F89010382201F07AFA13E424
:101330001CB5044601F073FA04F19101CDE90010E7
:1013400094F8901006233822204601F005FA94F80C
:101350009100002800D001201CBD08B50623009193
:1013600090F89010382201F05CFA13E41CB50446A2
:1013700001F055FA04F19101CDE9001094F89010B4
:1013800005233822204601F0E7F994F8910000285F
:1013900000D001201CBD08B50523009190F89010E5
:1013A000382201F03EFA8EE41CB5044601F037FA0B
:1013B00004F19101CDE9001094F890100423382233
:1013C000204601F0C9F994F89100002800D00120CE
:1013D0001CBD08B50423009190F89010382201F04C
:1013E00020FA70E41CB5044601F019FA04F19101E9
:1013F000CDE9001094F8901003233822204601F024
:10140000ABF994F89100002800D001201CBD08B56C
:101410000323009190F89010382201F002FA52E470
:101420001CB5044601F0FBF904F19101CDE900106F
:1014300094F8901000233822204601F08DF994F89A
:101440009100002800D001201CBD08B500230091A8
:1014500090F89010382201F0E4F934E438B50446ED
:1014600001F0DDF9009094F8901004F191033A2214
:10147000204601F069F994F8910038BD1CB5044686
:1014800001F0CDF904F19101CDE9001094F890102C
:1014900007233A22204601F05FF994F891000028D2
:1014A00000D001201CBD1CB5044601F0B8F904F1C0
:1014B0009101CDE9001094F8901006233A222046BD
:1014C00001F04AF994F89100002800D001201CBDD9
:1014D0001CB5044601F0A3F904F19101CDE9001017
:1014E00094F8901005233A22204601F035F994F83B
:1014F0009100002800D001201CBD1CB5044601F05D
:101500008EF904F19101CDE9001094F890100423B4
:101510003A22204601F020F994F89100002800D0EA
:1015200001201CBD1CB5044601F079F904F19101BC
:10153000CDE9001094F8901003233A22204601F0E0
:101540000BF994F89100002800D001201CBD1CB5B7
:10155000044601F064F904F19101CDE9001094F81A
:10156000901000233A22204601F0F6F894F89100FA
:10157000002800D001201CBDFEB50446DDE90AE7C5
:10158000DDE90C65DDE9080C8DE801502046FEF729
:10159000BFFE94F8901002233722204601F036F95E
:1015A0000A2004F095FF01230A220C21204601F0B5
:1015B0002DF90A2004F08CFF01F031F904F19101BA
:1015C000CDE90010062303220C21204601F090F8FB
:1015D00034F8910F40BA3880608840BA3080A088D3
:1015E00040BA2880FEBD2DE9FC411D4616460F4637
:1015F000044601F014F904F19101CDE9001094F8CA
:10160000901006233B22204601F072F834F8910F27
:1016100040BA3880608840BA3080A08840BA2880BC
:10162000BDE8FC811CB5044601F0F9F804F1910114
:10163000CDE9001094F8901002233B22204601F0DF
:1016400057F8B4F8910040BA00B21CBD1CB504466E
:1016500001F0E5F804F19101CDE9001094F8901043
:1016600002233D22204601F043F8B4F8910040BA2D
:1016700000B21CBD1CB5044601F0D1F804F1910183
:10168000CDE9001094F8901002233F22204601F08B
:101690002FF8B4F8910040BA00B21CBD2DE9FC410E
:1016A0001D4616460F46044601F0B9F804F19101B3
:1016B000CDE9001094F8901006234322204601F053
:1016C00017F834F8910F40BA3880608840BA3080FB
:1016D000A08840BA2880A3E71CB5044601F09FF813
:1016E00004F19101CDE9001094F8901002234322F7
:1016F000204600F0FDFFB4F8910040BA00B21CBDD6
:101700001CB5044601F08BF804F19101CDE90010FD
:1017100094F8901002234522204600F0E9FFB4F827
:10172000910040BA00B21CBD1CB5044601F077F828
:1017300004F19101CDE9001094F8901002234722A2
:10174000204600F0D5FFB4F8910040BA00B21CBDAD
:1017500038B50D46044601F062F800904935EAB20A
:1017600094F8901004F19103204600F0EDFF94F8F6
:10177000910038BD7CB50D46044601F050F804F1E7
:101780009101CDE900104935EAB294F89010022396
:10179000204600F0ADFFB4F8910040BA7CBD7CB5A6
:1017A0000D46044601F03BF804F19101CDE900102B
:1017B0004935EAB294F890100423204600F098FFCF
:1017C00054F8910F00BAE17820F0FF0008437CBD87
:1017D0001CB5044601F023F804F19101CDE9001095
:1017E00094F8901007236122204600F0B5FF94F88A
:1017F0009100002800D001201CBD1CB5044601F05A
:101800000EF804F19101CDE9001094F89010062330
:101810006122204600F0A0FF94F89100002800D03B
:1018200001201CBD1CB5044600F0F9FF04F1910134
:10183000CDE9001094F8901005236122204600F0B5
:101840008BFF94F89100002800D001201CBD1CB52E
:10185000044600F0E4FF04F19101CDE9001094F892
:10186000901004236122204600F076FF94F8910046
:10187000002800D001201CBD1CB5044600F0CFFF9D
:1018800004F19101CDE9001094F890100323612236
:10189000204600F061FF94F89100002800D001205C
:1018A0001CBD1CB5044600F0BAFF04F19101CDE95E
:1018B000001094F8901002236122204600F04CFFA3
:1018C00094F89100002800D001201CBD1CB50446EE
:1018D00000F0A5FF04F19101CDE9001094F89010FB
:1018E00000236122204600F037FF94F89100002881
:1018F00000D001201CBD30B4032908D86331CCB21C
:10190000134690F89010224630BC00F07FBF30BCE8
:1019100070471CB5044600F082FF04F19101CDE947
:10192000001094F8901007236722204600F014FF5F
:1019300094F89100002800D001201CBD08B50723B1
:10194000009190F89010672200F06BFF07E47CB5DF
:101950000D460446042901D900207CBD00F05FFF3C
:1019600004F19101CDE9001094F890102B46672204
:10197000204600F0F1FE94F891000028EDD00120FF
:101980007CBD08B50B46009290F89010672200F0DD
:1019900048FF20E408B50121009190F8901002233F
:1019A000682200F03EFF16E408B50121009190F88E
:1019B00090100123682200F034FF0CE408B50121E7
:1019C000009190F890100023682200F02AFF20E494
:1019D0003EB5044600F023FF0222009204F191017B
:1019E000CDE9011094F8901005236922204600F0FB
:1019F000CDFE94F891003EBD1CB50222CDE9002138
:101A000090F890100523692200F02DFF1CBD3EB513
:101A1000044600F004FF0222009204F19101CDE996
:101A2000011094F8901003236922204600F0AEFEC6
:101A300094F891003EBD1CB50222CDE9002190F83A
:101A400090100323692200F00EFF1CBD3EB5044632
:101A500000F0E5FE0222009204F19101CDE90110AF
:101A600094F8901001236922204600F08FFE94F82C
:101A700091003EBD1CB50222CDE9002190F89010E6
:101A80000123692200F0EFFE1CBD1CB5044600F0E6
:101A9000C6FE04F19101CDE9001094F890100623E0
:101AA0006A22204600F058FE94F89100002800D0E9
:101AB00001201CBD08B50623009190F890106A2201
:101AC00000F0AFFE33E41CB5044600F0A8FE04F1BC
:101AD0009101CDE9001094F8901005236A22204668
:101AE00000F03AFE94F89100002800D001201CBDBF
:101AF00008B50523009190F890106A2200F091FE3D
:101B000015E408B50423009190F890106A2200F0C3
:101B100088FE0CE408B50121009190F89010022392
:101B20006A2200F07EFE20E408B50121009190F8C1
:101B3000901001236A2200F074FE16E408B501211A
:101B4000009190F8901000236A2200F06AFE0CE4E5
:101B500008B50121009190F8901007236B2200F046
:101B600060FE20E41CB5044600F059FE04F191012A
:101B7000CDE9001094F8901006236B22204600F067
:101B8000EBFD94F89100002800D001201CBD1CB58D
:101B9000044600F044FE04F19101CDE9001094F8F0
:101BA000901005236B22204600F0D6FD94F891009A
:101BB000002800D001201CBD08B50523009190F835
:101BC00090106B2200F02DFE0BE41CB5044600F0D3
:101BD00026FE04F19101CDE9001094F89010032342
:101BE0006B22204600F0B8FD94F8910008B1002067
:101BF0001CBD01201CBD08B581F00101009190F8C9
:101C0000901003236B2200F00CFE08E43EB504465E
:101C100000F005FE0322009204F19101CDE90110CC
:101C200094F8901002236B22204600F0AFFD94F848
:101C300091003EBD3EB5044600F0F1FD0222009247
:101C400004F19101CDE9011094F8901007236C2262
:101C5000204600F09BFD94F891003EBD1CB5022289
:101C6000CDE9002190F8901007236C2200F0FBFDD5
:101C70001CBD1CB5044600F0D2FD04F19101CDE974
:101C8000001094F8901005236C22204600F064FDAB
:101C900094F89100002800D001201CBD08B5052350
:101CA000009190F890106C2200F0BBFD4EE61CB540
:101CB000044600F0B4FD04F19101CDE9001094F860
:101CC000901004236C22204600F046FD94F8910009
:101CD000002800D001201CBD08B50423009190F815
:101CE00090106C2200F09DFD30E61CB5044600F01B
:101CF00096FD04F19101CDE9001094F890100323B2
:101D00006C22204600F028FD94F89100002800D0B5
:101D100001201CBD08B50323009190F890106C229F
:101D200000F07FFD12E61CB5044600F078FD04F1DA
:101D30009101CDE9001094F8901002236C22204606
:101D400000F00AFD94F89100002800D001201CBD8D
:101D500008B50223009190F890106C2200F061FD0C
:101D6000F4E51CB5044600F05AFD04F19101CDE9FB
:101D7000001094F8901001236C22204600F0ECFC37
:101D800094F89100002800D001201CBD08B5012363
:101D9000009190F890106C2200F043FDD6E51CB540
:101DA000044600F03CFD04F19101CDE9001094F8E7
:101DB000901000236C22204600F0CEFC94F8910095
:101DC000002800D001201CBD08B50023009190F828
:101DD00090106C2200F025FDB8E51CB5044600F01B
:101DE0001EFD04F19101CDE9001094F8901002233A
:101DF0007222204600F07CFCB4F8910040BA1CBD71
:101E000038B5044600F00BFD009094F8901004F1F2
:101E100091037422204600F097FC94F8910038BD9D
:101E20000B4690F89010742200F0F0BC7CB515467B
:101E30000E46044600F0F3FCCDE9006094F89010E3
:101E40002B467422204600F053FC7CBD1CB50622B4
:101E5000CDE90021134690F89010752200F003FDA3
:101E60001CBD1CB5044600F0DAFC04F19101CDE97B
:101E70000010002394F890101A46204600F06CFCE5
:101E800094F891001CBD08B50023009190F89010C3
:101E90001A4600F0C6FC59E53EB5044600F0BFFC0A
:101EA0000622009204F19101CDE90110134694F845
:101EB00090100022204600F069FC94F991003EBD8C
:101EC0001CB50622C9B2CDE90021134690F8901046
:101ED000002200F0C8FC1CBD3EB5044600F09FFC8B
:101EE0000622009204F19101CDE90110134694F805
:101EF00090100122204600F049FC94F991003EBD6B
:101F00001CB50622C9B2CDE90021134690F8901005
:101F1000012200F0A8FC1CBD3EB5044600F07FFC89
:101F20000622009204F19101CDE90110134694F8C4
:101F300090100222204600F029FC94F991003EBD49
:101F40001CB50622C9B2CDE90021134690F89010C5
:101F5000022200F088FC1CBD38B5044600F05FFC8E
:101F6000009094F8901004F191030322204600F0B1
:101F7000EBFB94F9910038BDCBB290F8901003229E
:101F800000F044BC38B5044600F049FC009094F8D9
:101F9000901004F191030422204600F0D5FB94F93F
:101FA000910038BDCBB290F89010042200F02EBC06
:101FB00038B5044600F033FC009094F8901004F11A
:101FC00091030522204600F0BFFB94F9910038BD33
:101FD000CBB290F89010052200F018BC1CB5044656
:101FE00000F01DFC04F19101CDE9001094F890106F
:101FF00002230622204600F07BFBB4F8910040BA91
:1020000000B21CBD8BB290F89010062200F027BCE5
:102010001CB5044600F003FC04F19101CDE9001069
:1020200094F8901002230822204600F061FBB4F8D7
:10203000910040BA00B21CBD8BB290F890100822FB
:1020400000F00DBC1CB5044600F0E9FB04F1910161
:10205000CDE9001094F8901002230A22204600F0E7
:1020600047FBB4F8910040BA00B21CBD8BB290F8A7
:1020700090100A2200F0F3BB1CB5044600F0CFFB21
:1020800004F19101CDE9001094F89010022313227D
:10209000204600F02DFBB4F8910040BA00B21CBD00
:1020A0008BB290F89010132200F0D9BB1CB50446F7
:1020B00000F0B5FB04F19101CDE9001094F8901007
:1020C00002231522204600F013FBB4F8910040BA19
:1020D00000B21CBD8BB290F89010152200F0BFBB6F
:1020E0001CB5044600F09BFB04F19101CDE9001002
:1020F00094F8901002231722204600F0F9FAB4F861
:10210000910040BA00B21CBD8BB290F8901017221B
:1021100000F0A5BB1CB5044600F081FB04F1910161
:10212000CDE9001094F8901002233822204600F0E8
:1021300013FB94F89100002800D001201CBD08B5C5
:102140000223009190F89010382200F06AFB20E4FE
:102150001CB5044600F063FB04F19101CDE90010C9
:1021600094F8901001233822204600F0F5FA94F8F4
:102170009100002800D001201CBD08B5012300916A
:1021800090F89010382200F04CFB0CE41CB504468B
:1021900000F045FB04F19101CDE9001094F8901096
:1021A00005233922204600F0D7FA94F89100002840
:1021B00000D001201CBD1CB5044600F030FB04F12A
:1021C0009101CDE9001094F89010042339222046A3
:1021D00000F0C2FA94F89100002800D001201CBD44
:1021E0001CB5044600F01BFB04F19101CDE9001081
:1021F00094F8901003233922204600F0ADFA94F8A9
:102200009100002800D001201CBD1CB5044600F040
:1022100006FB04F19101CDE9001094F8901002231F
:102220003922204600F098FA94F89100002800D056
:1022300001201CBD1CB5044600F0F1FA04F1910127
:10224000CDE9001094F8901001233922204600F0C7
:1022500083FA94F89100002800D001201CBD1CB521
:10226000044600F0DCFA04F19101CDE9001094F885
:10227000901000233922204600F06EFA94F8910065
:10228000002800D001201CBD1CB5044600F0C7FA90
:1022900004F19101CDE9001094F8901002233A2244
:1022A000204600F059FA94F89100002800D001204F
:1022B0001CBD1CB5044600F0B2FA04F19101CDE951
:1022C000001094F8901001233A22204600F044FABE
:1022D00094F89100002800D001201CBD1CB50446D4
:1022E00000F09DFA04F19101CDE9001094F89010EE
:1022F00007236A22204600F02FFA94F89100002864
:1023000000D001201CBD08B50723009190F8901063
:102310006A2200F086FA06E408B50121009190F8DF
:10232000901003236A2200F07CFA06E430B41C000B
:1023300001F01F0301D043F020030AB143F0400332
:1023400090F8901030BC6D2200F060BA0B4690F807
:1023500090106E2200F05ABA38B5044600F05FFAC9
:10236000009094F8901004F191036F22204600F041
:10237000EBF994F8910038BD0B4690F890106F225D
:1023800000F044BA2DE9FC479846164689460023DA
:1023900082461A4641460A9FFFF7C8FF3946504613
:1023A000FFF7D4FF00242DE0102504F11000B04207
:1023B00001D9301BC5B2C7F58070A84200D2C5B2A2
:1023C00000F02DFA09EB0401CDE9001050469AF80F
:1023D00090102B466F2200F08BF9601984B27819A7
:1023E000C7B2B4420ED21FB908F1010000F0FF08D5
:1023F00000231A4641465046FFF798FF394650469B
:10240000FFF7A4FFB442CFD3BDE8FC872DE9FF4F0F
:1024100083B01646DDE911A700231A46DDF8409087
:1024200006990398FFF782FF49460398FFF78EFF4E
:102430004FF0000BD846BAF1000F03D01020FDF783
:10244000F9FE83461FB11020FDF7F4FE80460024FC
:102450006AE0102504F11000B04201D9301BC5B26A
:10246000C9F58070A84200D2C5B267B1002007E06C
:10247000049922180978114408F80010401CC0B2D1
:10248000A842F5D302E0049800EB04080398CDF8C5
:1024900000802B4690F890106F2200F097F9BAF167
:1024A000000F28D0BBF1000F25D000231A46069953
:1024B0000398FFF73BFF49460398FFF747FF00F0FB
:1024C000AEF9CDE900B003982B466F2290F890103A
:1024D00000F00EF92A465946404600F05BFD50B127
:1024E0005846FDF7D6FE17B14046FDF7D2FE002054
:1024F00007B0BDE8F08F601984B209EB050000F069
:10250000FF09B44210D2B9F1000F03D10698401C64
:10251000C0B2069000231A4606990398FFF706FFFB
:1025200049460398FFF712FFB44292D3BAF1000F65
:1025300002D05846FDF7ADFE17B14046FDF7A9FEA3
:102540000120D5E7FEB50126DDE908458DE87000DC
:10255000FFF75CFFFEBD2DE9FF4F83B01F009146E2
:102560000D464FF0000803D00820FDF763FE8046BB
:10257000002457E06FB12878011901F0FF0B641CAB
:102580000119641C2044641C01F0FF0AC6B2A4B205
:102590000AE015F804B0641CA0B215F800A0401CB5
:1025A00080B22E5C401C84B22EB397B1042E04D9A5
:1025B0003146404600F084F98046002006E0297844
:1025C0002218114408F80010401C80B2B042F6D323
:1025D00001E005EB040800210122CDF800A0CDE9BF
:1025E00001215B46324641460398FFF70FFFA119D0
:1025F0008CB2B8B909E01FB128782044C0B200E01D
:10260000285D641CA4B2012805D017B14046FDF72F
:1026100040FE00206CE703983223382290F8901097
:1026200000F0F4F84C45A5D317B14046FDF731FE54
:1026300001205DE700238EE738B5044600F0EFF88F
:10264000009094F8901004F191037022204600F05D
:102650007BF894F8910038BD0B4690F890107022EA
:1026600000F0D4B838B5044600F0D9F8009094F8DA
:10267000901004F191037122204600F065F894F85F
:10268000910038BD0B4690F89010712200F0BEB852
:10269000064A10B50023511E054802F097FEBDE81A
:1026A0001040044A044903F04DB8000003C009205B
:1026B00004010010000000001D5400007F4A10B506
:1026C000511E02F069FE7D4A0023083A511E08306F
:1026D00002F07CFE083810BD10B502F05DFE774AAE
:1026E0000023083A511E083002F070FE083810BD71
:1026F0002DE9FC4107461C460E46DDF820808DF88A
:1027000004201846FDF796FD054601207600034695
:10271000009001AA3146384602F017FE00200090D2
:1027200023462A463146384602F0F0FD002003E0F9
:102730002A5C08F80020401CA042F9DB2846FDF77F
:10274000A8FD60B2BDE8FC811CB5049CCDE9003455
:102750000123FFF7CDFF1CBD7CB51C46DDE9065308
:10276000009301ABFFF7F0FF01219DF80420A14089
:102770001140297040B27CBD0020704710B5012186
:10278000029C002099401140218010BD7CB51E465E
:10279000DDE907430093069D01ABFFF7D5FF10F07D
:1027A000FF020DD00120A840401E711B491C88402B
:1027B000C3B29DF804001840C8408DF80400207092
:1027C00050B27CBD00207047002070472DE9F041D9
:1027D0001D4617460C468046069E02F0B2FD61007B
:1027E000404602F0B0FD3946404602F0ACFD002400
:1027F00004E0315D404602F0A6FD641CAC42F8DB0B
:10280000404602F09CFD0120BDE8F0810FB581B08B
:1028100004AB00930123FFF7D9FF05B000BD0020F2
:1028200070472DE9FC41804600201C46009016466A
:102830000F46089D01AB4046FFF786FF01209DF83B
:102840000410A0400DB1014300E08143CBB28DF8EC
:102850000430324639464046FFF7D8FF72E7012080
:102860007047012070472DE9FC478146DDE90A47A2
:1028700000201D4600901646884601AB4846FFF7EB
:1028800063FF002814D00120A040401E291B491CD2
:102890008840C0B28F409DF80430F9B201408343B4
:1028A0000B438DF80430324641464846FFF7AEFFF1
:1028B000BDE8FC8700207047012070470BC009204D
:1028C00070B50D460646041FFDF710FDD0F800C098
:1028D000C5B1E6B105F10B0020F00703AB423CBFE8
:1028E000002070BD2068984238BFDCF8042013D364
:1028F000C11A08292FD3E01840F8041B2360FDF704
:10290000C8FC28E03046FDF7C4FC002070BD284616
:10291000BDE87040FDF78EBC002A18BFA2423CBF44
:1029200094465268F8D30119914216D111680844AF
:10293000984212D3C11A08293CBF2060506808D3BE
:102940005168E0184160216812681144C91A016099
:102950002360CCF80400201D70BD181FFDF76AFC31
:10296000050007D021680A1F211D00F0A9FB201DCA
:10297000FDF78FFC284670BD0FB4014610B504AAC0
:10298000039800F085FD10BC5DF814FB0FB41CB576
:10299000084B06AA7B4469460090059800F05FFD4D
:1029A00004460020694600F06DFD20461CBC5DF821
:1029B00014FB0000ED0A00002DE9F041064600245A
:1029C00010687529314616A511D000F096FC002834
:1029D00003DAC0F1000013A507E031688A0701D5CA
:1029E00011A502E0490704D510A5012401E000F07B
:1029F0008DFC00210A2306F1240707E0B0FBF3F267
:102A000003FB1200303078541046491C0028F5D1E1
:102A100023462A463046BDE8F04100F0A9BC00003C
:102A2000000000002D0000002B000000200000002E
:102A3000F0B40D460188090502D5234C7C4402E020
:102A4000214C7C440E34002100F124060BE002F0FE
:102A50000F074FEA1212E75D42EA03724FEA1313BF
:102A6000775401F1010152EA0307F0D10278002303
:102A7000120704D5702D06D009B111340223224665
:102A8000F0BC00F075BC10340123F8E770B50446C3
:102A90000D462146106800F039FC024629462046C2
:102AA000BDE870400023C3E7D21D22F00703D3E93D
:102AB0000023BDE70368126843F020030360082386
:102AC000C3610023B4E700007C4700002DE9F05FFC
:102AD000894604464FF0000ADFF878B1FB44C0F89D
:102AE00020A02046E1688847002875D0252806D018
:102AF000D4E901219047206A401C2062F1E70026BA
:102B00005F462046E16888472028054608DB312DCE
:102B100006D207EB050010F8200C08B10643F0E7D9
:102B2000B00701D526F00406C4F81CA00027C4F89D
:102B300018A02A2D09D0284602F05AFE38B304EB1B
:102B40008708303DC8F8185019E059F8041B204692
:102B500004EB87029161E1688847012F054618D18F
:102B6000E069002820DA26F020061DE0D8F81800D9
:102B700000EB800005EB40003038C8F81800204614
:102B8000E1688847054602F033FE0028EED1012FA8
:102B90000AD02E2D08D12046E16888477F1C0546C3
:102BA000022F46F02006C4DBA069002803DA404269
:102BB00046F00106A061F00701D026F010066C2D4A
:102BC0000BD0682D09D04C2D39D06A2D35D0742DFD
:102BD00035D07A2D33D016E038E0E1682F46204614
:102BE0008847B842054609D16C2F26D04FF4806043
:102BF000E168064320468847054604E06C2F1AD05A
:102C00004FF4807006430DB3A5F14100192802D896
:102C1000203546F400664A462946204626604E4640
:102C2000FDF78AFA80B101280BD0F61D26F00700C7
:102C300000F1080955E74020E4E78020D8E70020AC
:102C4000D6E706F104094CE7284651E7206ABDE8BB
:102C5000F09F0000044700000FB400B58DB010A92C
:102C6000099000910B904FF0FF300A9000200C90DB
:102C7000064878440690064878446A4607900F99BB
:102C800009A800F001FD0DB05DF814FB330A000047
:102C90004B0A00002DE9FF5F1D464FF0FF3B9146B8
:102CA0004FF000085F46D5E90146A96901987F1CED
:102CB0008847296A824688470028F6D11AF1010020
:102CC0000CD0002E24F4C06419DD600614D5BAF1CE
:102CD0002B0F09D0BAF12D0F0ED103E0584604B0E6
:102CE000BDE8F09F44F48064A96901987F1C88477F
:102CF000761E8246002E02DDBAF1300F03D0B9F104
:102D0000000F26D032E0A969761E01987F1C44F49A
:102D100000748847002E824605DDBAF1780F06D090
:102D2000BAF1580F03D0B9F1000F10D01EE0B9F17D
:102D3000000F02D0B9F1100F18D1A969761E0198C1
:102D40007F1C24F4007488478246102002E008208B
:102D500000E00A20814609E0A96908FB0908761EFF
:102D600001987F1C44F4007488478246002E05DDDC
:102D70004946504600F074FC0028EDDAE9690198F4
:102D80008847A00502D46FF00100A8E7E00727D12B
:102D9000600614D5600502D5C8F1000000E0404689
:102DA000296801F104022A600968220501D508702A
:102DB00016E0220701D5088012E0086010E02868BC
:102DC00000F1040129600068210502D580F8008027
:102DD00006E0210702D5A0F8008001E0C0F80080DD
:102DE00038467CE770B50446C068810713D080067A
:102DF00001D5A56A04E0A169606808442169451A03
:102E0000204600F039FE002206462946204600F002
:102E10005FFD304670BD002070BD70B510B1BDE8DB
:102E20007040DFE70025074C6E1E07E02046FFF7E5
:102E3000D9FF00B13546206D20F00104002CF5D1FA
:102E4000284670BD980100102DE9F0410C46074658
:102E50001646104600F078F82078611C61280AD0E8
:102E6000722802D077283CD102E00125002405E039
:102E70000225042402E0082448F2020511F8010B9F
:102E80002B2806D0622809D011F8010C74280AD02A
:102E90000BE045F0030544F00204EFE745F00405BC
:102EA00044F00104EAE744F010043846214602F0F9
:102EB000DFFC411C15D00021316171604FF40071BD
:102EC000F560F1617061200704D5304602220021CF
:102ED00000F0FEFC306D40F0010030653046BDE88A
:102EE000F0810020FBE72DE9F0410D460646104C2D
:102EF000206DC10704D0410804D020F00104F7E799
:102F000022460EE05420FDF795F907000ED0206D03
:102F100047F00101084354212065384600F0B5FE12
:102F20003A4629463046BDE8F0418DE70020D6E715
:102F30009801001011B14FF4807201E04FF48062EB
:102F40004FF4007300F040BD2DE9F04704464FF008
:102F500000094FF0FF37C568D4E90486A80707D0F9
:102F6000204600F089FD304602F04AFC002802DAD3
:102F70003846BDE8F087280502D54046FDF789F9B7
:102F80004C21204600F081FE206D20F001002065DC
:102F90004846EEE740EA010310B59B070FD1042A2B
:102FA0000DD310C808C9121F9C42F8D020BA19BA14
:102FB000884201D9012010BD4FF0FF3010BD1AB179
:102FC000D30703D0521C07E0002010BD10F8013BCE
:102FD00011F8014B1B1B07D110F8013B11F8014BF5
:102FE0001B1B01D1921EF1D1184610BD10B5431C18
:102FF00002E010F8011B71B18107FAD14FF00132E4
:1030000002C88C1A8C4314EAC211F9D0C01A0A06FD
:1030100003D0C01E10BDC01A10BD0A0401D0801E0E
:1030200010BD0902FCD0401E10BD40EA010370B57E
:103030009B072ED14FF00136042A2AD308C810C9A5
:10304000121F9D1B9D4315EAC61517D0D8B2E1B2D9
:10305000401A50EA056110D198B2A1B2401A50EA64
:1030600005410AD123F07F4024F07F41401A50EA05
:10307000052102D1180EA0EB146070BDA342DBD075
:1030800018BA21BA884201D9012070BD4FF0FF3033
:1030900070BD0AB9002070BD10F8013B11F8014B5A
:1030A00063B1A3420AD1521E08D010F8013B11F8B7
:1030B000014B1BB1A34201D1521EEDD1181B70BDB3
:1030C00010B5203AC0F00B80B1E81850203AA0E8C3
:1030D0001850B1E81850A0E81850BFF4F5AF5FEAF7
:1030E000027C24BFB1E81850A0E8185044BF18C9AA
:1030F00018C0BDE810405FEA827C24BF51F8043B51
:1031000040F8043B08BF7047D20728BF31F8023BA4
:1031100048BF11F8012B28BF20F8023B48BF00F838
:10312000012B704701F0FF03114601B543EA03226A
:1031300042EA024200F089FD01BD00004FF0013C6F
:1031400050F8042B51F8043B9A4221D1A2EB0C0316
:10315000934313EACC1317D150F8042B51F8043BD6
:103160009A4215D1A2EB0C03934313EACC130BD173
:1031700050F8042B51F8043B9A4209D1A2EB0C03FE
:10318000934313EACC13DBD04FF00000704700BF2D
:10319000D01A01BAB1FA81F101F0180122FA01F056
:1031A000CB40C1F12001DBB2C0B2C01A2CFA01F34E
:1031B000D11A914311EAC311E6D1704770B5064C9C
:1031C0007C44064D7D4403E0206820448047241D54
:1031D000AC42F9D170BD00002C4300002C4300002C
:1031E0002DE9F04117460E46054633B107FB03545F
:1031F000E41B2046B047A542FAD1A5F10800BDE87E
:10320000F0810000004870479C0200107047704732
:103210007047704738B504460A460020694601F0F9
:1032200032FA002808BF38BD02460099204600F057
:1032300055FD012038BD012001F0FBB9F8B501F0C2
:1032400017FA054600200C46102000BF0646A819B4
:10325000A0420DD932466946002001F014FA070059
:1032600008BF01F0E6F90098A04218BF0546C4194E
:10327000FDF73CF805600746F01D20F007004619F1
:10328000284600F00AF8B44208BFF8BDA21B314638
:103290003868BDE8F84000F021BD00210160C0E9B8
:1032A000011070471020704770B5044685690068AA
:1032B000C10601D5302600E02026C00708D070BD29
:1032C000D4E9012130469047206A00F101002062D4
:1032D0006D1EF5D570BD70B5044685690078C007D0
:1032E00008D170BDD4E9012120209047206A00F167
:1032F000010020626D1EF5D570BD09684A0501D533
:1033000040B27047C905FCD500B2704709684A054C
:1033100001D5C0B27047C905FCD580B2704770B501
:103320000C460546012A05D02878800600D5EA69B2
:10333000002302E0012305E05B1C934202D2E05C23
:103340000028F9D1A869E618C01AA861286A1844AB
:1033500028622846FFF7A8FF04E0D5E9012114F808
:10336000010B9047B442F8D32846FFF7B4FF70BD75
:103370002DE9F0470D4699469246044600F124088F
:103380000168880604D5E06921F01001216000E0A1
:103390000120A84202DDA0EB050700E00027A1699B
:1033A00007EB050202EB0900A1EB0000A061207809
:1033B000C00602D42046FFF777FF002608E0D4E9D4
:1033C00001211AF806009047206A401C761C2062F2
:1033D0004E45F4DB2078C0060AD52046FFF764FF8F
:1033E00006E0D4E9012130209047206A401C206289
:1033F000381EA7F10107F4DC07E0D4E9012118F831
:1034000005009047206A401C2062281EA5F1010596
:10341000F3DC2046FFF75FFF2078000602D502208C
:10342000BDE8F0870120FBE711680268006A5305D8
:1034300001D508700BE0D30501D5088007E013061D
:1034400003D5C217C1E9000201E05206086001205D
:103450007047000001694A1C02610878704700B596
:103460008FB0CDE901310021059105497944CDE9BD
:10347000031011466846FFF729FB0FB000BD00009E
:10348000E5FFFFFF0A6802F8010B0A6070470000C1
:10349000074B70B50D467B44FFF7E1FF0446284615
:1034A00000F022F910B14FF0FF3070BD204670BD22
:1034B0005B2500002DE9FF5F15468A460446DFF8CC
:1034C000AC80F8440027D8E900103E46CDE9001052
:1034D00011E03AF816106A4602A801F07EF8411C85
:1034E00007D02178890603D5E269391891420ED8B0
:1034F000074406F101062078800602D5E069B8424B
:1035000005DDAE42E5DB3AF816000028E1D1A069FE
:10351000C01BA0612046FFF7C7FED8E90010CDE927
:103520000010002016E03AF818106A4602A801F0D0
:1035300054F88146401C0BD000250DF1080B05E026
:10354000D4E901211BF8050090476D1C4D45F7D3C8
:1035500008F10100B0428046E5DB206A3844206271
:103560002046FFF7B8FEBDE8FF9F0000323D000097
:103570002DE9F0418046D21D22F007020025D2E954
:103580000002F52914A612D0002A06DA0023D0EB97
:10359000030063EB020211A608E0D8F800108B07C5
:1035A00001D50FA602E0490701D50EA60125114657
:1035B000002408F1240704E000F0AAFB30323A5559
:1035C000641C50EA0102F7D12B46324621464046A0
:1035D000BDE8F041FFF7CCBE000000002D00000068
:1035E0002B0000002000000030B4002100F1240472
:1035F0000CE002F0070505F130054FEAD20242EA7D
:103600004372655401F101014FEAD30352EA030505
:10361000EFD10468002310A2250708D504F0200488
:103620000C4304D0C46901230CA2641EC46130BCE5
:10363000FFF79EBE10B5044621461068FFF766FEF0
:1036400002462046BDE810400023CDE7D21D22F0FF
:103650000701D1E90023C7E70000000030000000A7
:103660003A2800D2303820F02002412A01D3A2F1BA
:103670003700884201D34FF0FF3070470268114491
:103680001378016018467047D1600549794451614B
:1036900004497944116200211161114600F0C2BD54
:1036A000EDFFFFFF05070000426842B1016811F815
:1036B000013B23B1521EC0E9001218467047012198
:1036C000C160881E704742685AB1C368016843B937
:1036D00083688B4205D0491E521CC0E900120020AD
:1036E00070474FF0FF307047007B00F0800070475C
:1036F0002DE9F04705460C46C86820F4201040F438
:103700008000C860800602D5084600F0D8F9E0685D
:1037100041F282014FF0FF390140022903D02046D7
:1037200000F076F9B8E000F42041B1F5004F0FD178
:10373000C00306D56168E06A884200D80846606028
:1037400006E02069E0626060606902F06DF8A061E7
:10375000A0680022EEB200280DDAE1688B050AD4D9
:10376000C043A06041F490302260E0606068411C7A
:1037700061600670A9E0E0689046226040F4005065
:10378000E060206968BB606902F060F8012704F11D
:103790002405A0B1A08910F4407F08D0E069FCF7AF
:1037A00049FD206118B1E06840F4006016E0E7616F
:1037B0002561E06820F4407040F480600EE0E0692C
:1037C000FCF738FD00282061F1D0E06840F400608B
:1037D00010F4407FE06002D140F48070E060206926
:1037E0006060E06825696FF0010AC10521D5616854
:1037F000E06A884200D80846411B04D02246284689
:1038000000F010F9F0BBE068010203D5E562C4E9FD
:10381000015858E005F10101E1626160E16940F49D
:103820008030A1F10101C4E9021030462E70BDE8DC
:10383000F087010202D500F480320AE06068411C82
:1038400061600670E0680A2E40F48030E06006D0C7
:103850000022E16A6068814203D90B4602E001223E
:10386000F7E70346A789A3EB05037F0503D4E769C0
:103870009F4200DDEAB1814200D801460F1A002BB9
:10388000E56200E008E0C4E9015807DD2246194678
:10389000284600F0C7F808B14846C8E74FB1A0690C
:1038A000E5626560A0EB0700A061E06840F01000F1
:1038B000E060E068000208D56168A069E562491B24
:1038C00008446560A0615046B1E73046AFE70000AC
:1038D0002DE9F041044616460D464769007B8007F6
:1038E0002ED0384601F0B2FF50BB3EB3012E02D0BD
:1038F000022E25D104E0204600F04CFE05441DE0D8
:10390000384601F091FFE168002841F01001E160C4
:1039100005DA204600F07CF80120BDE8F081C903FB
:103920000BD56268E16A914200D81146A269114440
:103930002269891A814200DD08460544002D01DA1A
:103940000220EAE7E16A6068E268814206D29103F8
:10395000E06203D522F4003141F01002A66900278D
:10396000AE4213DCE16A814201D90B4600E0034616
:1039700003EB060C2369ACEB030CAC4506DD81427E
:1039800001D98C4600E084469C4505D1A76027609C
:1039900042F02000A5620DE0AD1BE669AE1B81423E
:1039A000A66000D90846C01A281A2060581960601D
:1039B00022F0200003490840E060002084F84870AD
:1039C000ABE70000BFCFD7FF70B5C468A50713D021
:1039D000650211D4B2F5807F09D0B2F5007F06D020
:1039E000B2F5806F08D1012300F1240106E05D1ECD
:1039F0006FF07F46B54201D3012070BD0161C36104
:103A0000416024F470611143C160002070BD00006A
:103A1000C16821F4001141F08001C1600021816082
:103A2000016070472DE9F047814614460E464FF07D
:103A3000FF383248D5685769054209D03846A16930
:103A400001F090FF002811DB2C48C0430540E560E1
:103A50002B4632464946384601F098FFA16920F0CE
:103A60000042B21A11440028A16103D02046FFF79A
:103A7000CFFF4046BDE8F08770B504460569C06ACF
:103A80006168884200D80846E16821F42011E160AD
:103A9000C90312D5A84208D02246411B2846FFF789
:103AA000C1FF10B14FF0FF3070BD0020E562C4E9E6
:103AB0000150E06820F48030E060002070BD10B557
:103AC0000446C06820F02000E060A16AA069884236
:103AD0000DD02046FFF7D0FFE06820F4405040F0C2
:103AE0001000E060A06AA0612069E062606044F2BA
:103AF0004001E0688843E06010BD00001000020053
:103B000010B54248542100F0C0F84148542100F05B
:103B1000BCF84048542100F0B8F83F493B483C4AC3
:103B20003F4B08603D490A603A491960531C0365E0
:103B3000481C1065012008653B48344A39A1784487
:103B4000FFF782F920B9384878440A3800F06AFD56
:103B500037482F4A35A17844FFF776F920B9344821
:103B600078440A3800F05EFD32482A4A2FA1784492
:103B7000FFF76AF920B92F4878440A3800F052FD5F
:103B800040232248DC0000212246FFF71DFF20B120
:103B900025487844543800F045FD1D48224640230E
:103BA0000021FFF711FF20B121487844543800F07C
:103BB00039FD1848224610230021FFF705FF002891
:103BC00006D01C487844BDE81040563800F02ABDA5
:103BD00010BD104870B5006D20F001040B48FFF7D0
:103BE000B3F90B48FFF7B0F90A48FFF7ADF909E060
:103BF000206D20F001052046FFF7A6F92046FCF7CE
:103C000048FB2C46002CF3D170BD00009801001039
:103C1000EC01001040020010F4000010F800001049
:103C2000FC00001072000000F0340000770000007B
:103C3000DF340000CF34000010B500F001FDBDE816
:103C4000104000F0EABC4FF000020429C0F01280DE
:103C500010F0030C00F01B80CCF1040CBCF1020F3F
:103C600018BF00F8012BA8BF20F8022BA1EB0C0114
:103C700000F00DB85FEAC17C24BF00F8012B00F80A
:103C8000012B48BF00F8012B70474FF0000200B530
:103C9000134694469646203922BFA0E80C50A0E86F
:103CA0000C50B1F12001BFF4F7AF090728BFA0E81D
:103CB0000C5048BF0CC05DF804EB890028BF40F8E9
:103CC000042B08BF704748BF20F8022B11F0804F2B
:103CD00018BF00F8012B704700F0F2BC03464068A3
:103CE0008C46002818BF88423CBF03464068F8D382
:103CF00018681844884207D00CF1030020F0070030
:103D0000001D411A521A0146081D0A60FCF7C1BA8B
:103D100030B5B0F10A024FEA900E71F100034EEA9D
:103D2000817EB0EB0E0061EB91014FEA101E4EEA6E
:103D3000017E10EB0E0041EB11114FEA102E4EEAFE
:103D4000016E10EB0E0041EB11214FEA104E4EEACE
:103D5000014E10EB0E0041EB1141401841F1000102
:103D60004FEAD00040EA41704FEAD10110EB8005E4
:103D70004FEA810444EA907444EB01046D1944EB6A
:103D80000404521BA3414FF0000348BF0A3200D580
:103D900030BD401C41F1000130BD10B5044600F0BB
:103DA000A3FC0068005D00F0010010BD70472DE924
:103DB000FF4F0C461E464FF0FF378BB0D2E9000193
:103DC000DDF860800A908A46C1F30A5505B93D4680
:103DD000002108464FF00000BAF1000F00F4400047
:103DE00005DA00EB80004FF4400101EA50004FEA91
:103DF0009059B9F1010F00DDB9460A9850EA4A001E
:103E00000ED044F61050A5F2FF3545432F14B8F1FB
:103E1000000F1ED07542291E1EDDC9F100021CE0F4
:103E2000B8F1010F4FF0000001D0302103E0F24360
:103E300005E02154401CB042FBDB3046002200214B
:103E400021540B99C1F80880C1E900200FB0BDE8EA
:103E5000F08FBD1B6D1CDEE74A4600DA694206A8FA
:103E600000F092FC06AB07CB03AB07C350460A99A0
:103E700000F0D2FD8DE80700A0F500501F3800903B
:103E80000398002D09DD42F21F014A46084403A9A8
:103E90000390684601F031F808E0A0F500504A466A
:103EA0001F3803A90390684601F03BF88DE807002E
:103EB0000004000C03D04FF0FF30410800E0104632
:103EC000B8F1000F03D00022009215461FE0751EC6
:103ED00006D4FFF71DFF02F1300262556D1EF8D5C2
:103EE000B3460122084302D000227F1C04E0207860
:103EF000302801D100227F1E002A099787D01DE0BB
:103F0000112D07DAFFF704FF303262556D1C50EABD
:103F10000102F5D108430FD10021681E05E0235CA2
:103F2000625C6354491C2254401E8142F7DBAB465D
:103F3000A81B401E099001E0009848B1002004F839
:103F40000B000B98099AC0F80880C0E9002B7DE7A8
:103F500011264FF000085AE72DE9F04F8846044635
:103F6000D21D22F0070191B0D1E90001CDE90A018B
:103F700001F0D4FB02460B98C00F01D02D2007E0C2
:103F80002068810701D52B2002E0202101EAC00032
:103F9000032A099001D0072A05DB03464146204643
:103FA00000F0B2FB0FE12078800601D5E06900E067
:103FB0000620B8F1650F814606D0B8F1660F18D01B
:103FC000B8F1670F72D132E00020B9F1110F009003
:103FD00001DB112301E009F101030AAA01A90CA8E0
:103FE000FFF7E5FEDDE90C70002609F101058346C7
:103FF00048E001204B4600904FF000470AAA01A973
:104000000CA8FFF7D4FEDDE90DB00C995D46002643
:1040100018B909F1010001EB0005B9EB050003D463
:10402000C0F1FF3609F10105A5EB09002BE0B9F15C
:10403000010F01DA4FF001090020B9F1110F0090D2
:10404000484601DD112300E003460AAA01A90CA895
:10405000FFF7ADFEDDE90C704D4600268346207863
:1040600000070AD4AB4500DA5D4601A8012D04DD46
:10407000411911F8011C302907D04F4502DA17F118
:10408000040F04DA0120824610E06D1EEEE7002FD7
:1040900002DCED1B3E4403E0781CA84200DD05462F
:1040A000A7EB060000F1010A4FF000472078000757
:1040B00003D4AA4501DB4FF0FF3A0021B7F1004FCE
:1040C0000DF143088DF8431023D002202B23002F3D
:1040D00001DA7F422D234FF00A0C011EA0F10100EE
:1040E00000DC4FB197FBFCF10CFB11720F4602F1A3
:1040F000300208F8012DF0E7A8F1010003702188D3
:10410000090501D5452100E06521A0F1010800F86D
:10411000011C09980FA9A1EB080707F1070700B1D7
:10412000012000EB050101EBEA70A1693844A1EB25
:104130000000A0F10100A0612078C00602D4204652
:10414000FFF7B2F8099830B1D4E901219047206A0D
:1041500000F1010020622078C00620D52046FFF73C
:10416000A3F81CE0002E04DBB34502DD01A8805D4E
:1041700000E03020D4E901219047206A761C401CE1
:10418000BAF1010A20620AD100F0B6FAC0680168EB
:10419000405CD4E901219047206A401C2062281E1F
:1041A000A5F10105DEDC07E0D4E9012118F8010BD7
:1041B0009047206A401C2062381EA7F10107F3DCFB
:1041C0002046FFF788F8022011B040E610B5436999
:1041D00013B1AFF3008001E0FFF7A1F8012010BD9B
:1041E000127800F124010A7000224A700122EDE7E2
:1041F00011684FF0FF32E9E710B5436913B1AFF32F
:10420000008001E0FFF756F9012010BD128800F18F
:10421000240182840022C2840122EDE711684FF05C
:10422000FF32E9E72DE9F34F4FF0000A0C465646FE
:104230008DB001200C9001F10C000B9062690B987D
:104240000121904705002DD0252D2CD0216A8847CB
:10425000C0B162690B9801219047216A8847002804
:10426000F7D16269411E0B98904700E0761CA16966
:104270000D988847216A88470028F7D1E1690D9891
:104280008847DBE7A1690D988847A842074601D116
:10429000761CD3E7E1690D9888477F1C02D1BAF1FB
:1042A000000F6FD06AE162690B9800273D463946DE
:1042B00090472A2804D162690B9801219047012573
:1042C000DFF8CC8262690B9801219047A0F13001A0
:1042D0000A290AD24745E5DC07EB870100EB4107D5
:1042E000303FDFD445F01005ECE7E90601D46FF06C
:1042F00000476C280AD04C2814D0682815D06A28AA
:104300000DD074281CD07A281AD01DE062690B9851
:10431000012190476C2802D045F0040514E045F0D7
:1043200002050DE045F020050AE062690B980121C5
:104330009047682802D045F0080505E045F400657F
:1043400062690B9801219047C4E9015765283DD067
:1043500019DC582879D00CDC452837D004DC252816
:1043600026D041289ED131E046282FD0472899D128
:104370002CE05B287FD0612828D063287BD064287C
:1043800090D159E0F5E06F2847D008DC66281DD0B1
:1043900067281BD0692821D06E2816D127E0702805
:1043A00044D0732867D0752846D078280DD14CE0CA
:1043B000A1690D988847252805463FF469AFE16952
:1043C0000D9888476D1C3FF46AAFD7E00D992346DE
:1043D0006A466FF00100AFF30080C4E045F0400092
:1043E00023464FF000026060A80735D43DE0206806
:1043F00000F1040121600068290501D506701DE760
:10440000290701D5068019E7A90704D54FEAE67107
:10441000C0E9006112E7066010E745F0400023465E
:104420004FF008026060A80716D41EE040F60E01A7
:1044300025EA0100606016E045F0400023464FF099
:104440000A026060A80707D40FE045F040006060F2
:10445000A80708D5234610220D996FF00100AFF38D
:10446000008080E007E0102223460D996FF00100E4
:10447000FEF710FC77E04FF0000963284F46C8466E
:104480004B46CB4602D05B2806D038E0E80601D484
:104490000120A060012732E06269D4F80CB00B98CB
:1044A000012190475E2807D14FF001094946626912
:1044B000D4F80CB00B989047216939B900210B460C
:1044C00003AA42F82130491C0829FADBD8B3216934
:1044D00049B308F1010862690B98012190475D28F2
:1044E000F4D1B9F1000F09D0002003A951F8202020
:1044F000D24341F82020401C0828F7DB03AB206999
:10450000002820794FEA40701ED05B462246CDF845
:104510000080CDE901970D9900286FF0010020DAA5
:10452000AFF300801FE0C11700EBD16203A9531164
:1045300022F01F0201EB8301821A0B6801209040D8
:1045400003430B60C7E719E00D99224600286FF07E
:104550000100009702DAAFF3008004E0AFF30080BF
:1045600001E0AFF3008000280ADA401C06D10C9865
:1045700020B14FF0FF300FB0BDE8F08F5046FAE7A2
:10458000E90701D10AF1010A064400200C9055E622
:10459000CCCCCC0C10B50146C268900703D0900675
:1045A00007D5886A0BE000F0ABF801210160881E96
:1045B00010BD8B69486818440B69A0EB030091F8A3
:1045C000483023B191F84910A0EB010010BD110350
:1045D000FCD50028FADD401E10BD70B516460C460D
:1045E000054600F081F8036893F80101012806D020
:1045F000FF2C0FD8185D68B101202C7070BDD3F866
:1046000007013246214603442846BDE8704003F2C4
:10461000071318474FF0FF3070BD002801D000F09D
:104620005DB8704710B500F043F9BDE81040FFF7E2
:10463000F4BF10B500F056F9BDE81040FFF7EDBF2C
:1046400010B5002102A000F019F9012010BD0000F2
:104650005349475056464E3A205075726520766948
:10466000727475616C20666E2063616C6C656400A9
:10467000124B694600F580528A421A6001D81146F1
:1046800070471960704730B50C4D6B46A3F58053E9
:104690002C6822449A420FD89B1A02F5805003EBF3
:1046A000D37302EB6303984200D91846C01D20F073
:1046B00007020C60101B2A6030BD000000010010D2
:1046C00010B500F03AF9016919B10022026188477A
:1046D00001E08068804700F0C9F800000149182017
:1046E000ABBEFEE72600020010B500F005F8001D85
:1046F00010BD00BF291E000000487047A002001036
:1047000000487047B40200102DE9F0411F460446EE
:1047100003260168072A01F4006004DB08B116A52E
:1047200005E016A503E008B115A500E015A521F0E8
:1047300010002060A069C01EA0610FB1401EA061E2
:104740002046FEF7B1FD4FB1D4E90121384690472C
:10475000206A401C2062C01C206206E0206AFAE742
:10476000D4E9012115F8010B9047761EF8D22046B6
:10477000FEF7B1FDBDE8F0814E414E006E616E0066
:10478000494E4600696E66002DE9F047814616469F
:104790008AB035487844D0E9002380680092CDE99A
:1047A0000130314878440C38D0E902230069039283
:1047B0004FF03702CDE9043041F69B30014491FBC4
:1047C000F2F0A0F1800502FB10141B3C02D56442FC
:1047D000012000E00020DFF890A080460027FA4486
:1047E000AAF1C60A0DE0E00709D03246684607EB99
:1047F00047010AEB810100F094FB8DE8070064108B
:104800007F1C002CEFD1184F7F44B43F17E0E8071E
:1048100013D007EB04100DF1180A90E80E00AAE877
:104820000E00C068F04201D198190890324606A9DE
:1048300003A800F076FB03AB07C36D10641C002DCA
:10484000E5D132466946B8F1000F03A802D000F066
:1048500054FB01E000F065FBC9E90001C9F808203C
:104860000AB0BDE8F0870000E42A0000002000F054
:1048700095F8AFF300800120FFF730FF70B50546D3
:104880000C460A2000E06D1C00F07CF835B1287859
:104890000028F8D102E0641C00F074F814B120780C
:1048A0000028F8D1BDE870400A2000F06BB8000085
:1048B00010B5014602A0FFF7E1FF012010BD000086
:1048C00053494752545245443A20526564697265CF
:1048D00063743A2063616E2774206F70656E3A20AE
:1048E0000000000010B5012805D0002103A0FFF74B
:1048F000C5FF012010BD09A1F8E700005349475248
:10490000544D454D3A204F7574206F66206865619F
:1049100070206D656D6F7279000000003A20486567
:104920006170206D656D6F727920636F7272757042
:104930007465640010B5FFF799FF70B500F02AF8B0
:1049400004680546A4B92020FBF774FC040011D0CC
:10495000094900202C60C4E900010849A1602073C6
:10496000206160610649A06109B100F01EF8E061B4
:10497000204670BDFFF77AFF0000000035490000B7
:104980000000000008B569468DF800000320ABBEAA
:1049900008BD704700487047B802001010B500F01D
:1049A00023F8BDE81040FFF738BE10B58820FBF7AC
:1049B00041FC002801D00021017010BD802902D8DF
:1049C00008B1017809B100207047012100F8081BE7
:1049D000704718B100F10802914201D000207047E1
:1049E000002101707047000010B5002102A0FFF700
:1049F00045FF012010BD0000534947414252543A3F
:104A00002041626E6F726D616C207465726D696EAB
:104A10006174696F6E0000005FEA400C08BF91F09E
:104A2000000F4FEA8C234FEAC12243EA51514FEA6B
:104A30001C5018BF00F5F0404FEA300018BF41F09D
:104A400000415FEA6C5C00F02980BCF1FF3F08BFC9
:104A500040F080407047130C06BF12044FF0100C5A
:104A60004FF0000C130E04BF12020CF1080C130FD0
:104A700004BF12010CF1040C930F04BF92000CF15F
:104A8000020CD30F04BF52000CF1010C11464FF081
:104A90000002A0F11F00A0EB0C00704711F0004FC6
:104AA00008BF704731F000413FF4D5AF0B0C06BF93
:104AB00009044FF0100C4FF0000C0B0E04BF09025C
:104AC0000CF1080C0B0F04BF09010CF1040C8B0F47
:104AD00004BF89000CF1020CCB0F04BF49000CF19C
:104AE000010CCCF12003A0EB0C0022FA03F302FA34
:104AF0000CF241EA030100F10100704720F07F4C05
:104B000080EA030023F07F47ACEB070303F57C53F7
:104B100000F0004003F1FF032DE980494FEA154BF7
:104B200009B44FEA144325EA0B4E24EA03480FF276
:104B3000042606EB132749083E785FEA320203FB9E
:104B40000667C7F5000707FB06F64FEA54374FEA3A
:104B5000D64606F1020607FB066CCCF1005C4FEA74
:104B60001C472CEA074C07FB06F40CFB06F504EB8C
:104B700015464FEA961634BF00204FF000404FEA2A
:104B8000D13706FB07FC4FEA1C4C0CFB0BF7D21B82
:104B900003FB0CF761EB07010CFB0EF7B0EB0740D2
:104BA00072EB17420CFB08F734BFA2EB0742B2EBE3
:104BB000074261EB17414FEA0C444FEA910706FBAD
:104BC00007FC4FEA1C4C0CFB0BF7B0EBC74072EB39
:104BD000573203FB0CF734BFA2EBC742B2EBC7421C
:104BE00061EB57310CFB0EF7B0EBC70072EB57725D
:104BF0000CFB08F734BFA2EBC702B2EBC70261EBB4
:104C00005771039F4FEA816141EA921104EBCC0492
:104C10004FEAD1374FEA826206FB07FC42EA901264
:104C20004FEA80604FEA1C4C0CFB0BF7D21B03FBD6
:104C30000CF761EB07010CFB0EF7B0EB074072EBD2
:104C400017420CFB08F734BFA2EB0742B2EB074256
:104C500061EB17414FEA8C554FEA910704EB9C2416
:104C600006FB07FC4FEA1C4C0CFB0BF7B0EBC740F4
:104C700072EB573203FB0CF734BFA2EBC742B2EB27
:104C8000C74261EB57310CFB0EF7B0EBC70072EB7C
:104C900057720CFB08F734BFA2EBC702B2EBC70296
:104CA00061EB577115EB4C254FEA816141EA921196
:104CB0004FEA82624FEAD13742EA901206FB07FCC4
:104CC00044F100044FEA80604FEA1C4C0CFB0BF7E8
:104CD000D21B03FB0CF761EB07010CFB0EF7B0EBEB
:104CE000074072EB17420CFB08F734BFA2EB0742F8
:104CF000B2EB074261EB174115EB1C154FEA81310E
:104D000041EA92414FEA823242EA90424FEA8030D1
:104D10004FEA0C7644F1000448EA03434EEA0B489C
:104D20004FF0000EB2EB080C71EB030724BF624694
:104D300039464EEB0E0E4FF0000B00185241494120
:104D40004BEB0B0BB2EB080C71EB03077BF1000B89
:104D500024BF624639464EEB0E0E4FF0000B001892
:104D6000524149414BEB0B0BB2EB080C71EB0307C3
:104D70007BF1000B24BF624639464EEB0E0E51EA22
:104D8000020718BF46F0010616EB0E7655F1000239
:104D900054F1000103D5BDE88901BDE80088BDE8F4
:104DA0008901BDE80048B619524141EB0101A3F168
:104DB0000103704780807F7E7D7C7B7A797877766F
:104DC00076757473727171706F6E6E6D6C6C6B6AE8
:104DD0006A69686867666665646463636261616086
:104DE000605F5F5E5E5D5D5C5C5B5B5A5A59595803
:104DF000585757565655555554545353525252516D
:104E0000515050504F4F4F4E4E4D4D4D4C4C4C4BC2
:104E10004B4B4A4A4A494949484848474747474609
:104E20004646454545444444444343434342424245
:104E300042414141002B26D4770021D01CB54FEAD6
:104E4000370703B44FF010004FF010014FF000008F
:104E50000FBCBDE810400BF1010BBBF1010F08BF07
:104E60005FEA170722BF12F1010211F101014FF0B1
:104E7000004143F1000300F0004043EA00007047A6
:104E8000F9D35708DAE746EA064613F1400F4FEA2E
:104E900016461FDD13F1200FDFBF16430A4600211F
:104EA00020335B42C8D0C3F1200746EA064602FA27
:104EB00007F74FEA164646EA0706C3F1200722FA2B
:104EC00003F201FA07F721FA03F14FF0000342EA77
:104ED0000702B1E746EA020646EA06464FEA1646E8
:104EE00046EA0106BCBF46EA0646360C4FF0000310
:104EF0004FF000024FF000019EE72DE9C0489346B5
:104F000030B491E8380007C831EA400C48BF34EAB1
:104F1000430C03D5FFF7F2FDFFF78CFFF0BCBDE8B3
:104F200000882DE9C048934630B491E8380007C89E
:104F300010F0804F08BF13F0804F03D100F005F848
:104F4000FFF778FFF0BCBDE8008820F07F4780EADB
:104F5000030023F07F4C07EB0C03A3F57C5300F018
:104F60000040A3F1FE0392F0000F00F0B38095F033
:104F7000000F00F077802DE901494FEA11404FEA18
:104F8000144621EA004800FB06FC24EA064708FB19
:104F900006F607FB08F800FB07F718EB06484CEB92
:104FA000164C4FEA124B18EB07484FEA15464CEBEC
:104FB000174022EA0B4E0BFB06FC25EA06470EFBC8
:104FC00006F607FB0EFE0BFB07F71EEB064E4CEB3F
:104FD000164C4FF000061EEB074E4CEB174B18EB30
:104FE0000B0840F1000018EB0E0B58EB000840F1E5
:104FF00000008F1A4FF000013CBFC943661B14BF6D
:10500000B5EB040C00213CBFC943F61B4FEA174423
:105010004EEA8E0E27EA04454FEA1C4704FB07625E
:105020002CEA074C05FB07F70CFB05F604FB0CFC10
:1050300016EB074642EB174216EB0C4642EB1C42BE
:105040001BEB060658EB0202414146EA9E0601D5DB
:10505000BDE80189B619524141EB0101A3F10103F9
:10506000BDE801894FEA14454FEA114724EA054695
:1050700021EA074C05FB07F406FB07F70CFB06F1DA
:1050800005FB0CFC11EB074144EB17444FEA1247B8
:1050900011EB0C4144EB1C4422EA074C05FB07F2E0
:1050A00006FB07F70CFB06F605FB0CFC16EB0746A8
:1050B00042EB174216EB0C4642EB1C456A1854F1C2
:1050C000000148BF7047B619524141EB0101A3F1FD
:1050D0000103704795F0000F37D04FEA11424FEAB5
:1050E000144721EA024624EA074C02FB07F106FBBB
:1050F00007F70CFB06F402FB0CFC14EB074441EB36
:1051000017414FEA154714EB0C4441EB1C4125EACB
:10511000074C02FB07F506FB07F70CFB06F602FB44
:105120000CFC16EB074645EB174516EB0C4645EB1A
:105130001C42121951F1000148BF7047B619524183
:1051400041EB0101A3F1010370474FEA14454FEA17
:10515000114724EA054621EA074C05FB07F106FB47
:1051600007F70CFB06F24FF0000605FB0CFC12EBF8
:10517000074241EB174112EB0C4251EB1C4148BF77
:105180007047921841EB0101A3F10103704710B57C
:1051900000F066FEBDE81040FBF777B9042100F08F
:1051A0007FBA0000F0B50A4D2B682A685AB96E061E
:1051B0001C463346002254F8227043F82270521CD9
:1051C000312AF8D32E6003EB80000164F0BD0000AB
:1051D00008ED00E0244810B52021C0F8A011D0F857
:1051E000A011890603D5D0F8A0114906FBD500F11E
:1051F00080000221C0F884104FF00002C0F828217E
:10520000C0F82C214FF00101C0F88C104FF00B03B7
:1052100043604FF0AA03C3604FF05504C4600160BF
:10522000C360C460A0F18000D0F888104901FBD5AC
:10523000032140F8801FC360C4608038D0F8881014
:1052400011F0407FFAD00521C0F808110749C0F8D5
:10525000C410C0F8C821016843F23A0221F4704139
:105260001143016010BD000000C00F40DE8728041C
:1052700004480068002804D1034A0448511E00F085
:10528000FDBF7047D000001003C00920D8000010F7
:1052900070B5054600680122002103692846984739
:1052A0000446401C0ED028680222002103692846CB
:1052B00098470646286800222146036928469847F1
:1052C000304670BD4FF0FF3070BD000010B507498B
:1052D00001600021064A0B4652F82140844201D168
:1052E00042F82130491C1029F6D310BD9C720000F1
:1052F00048010010016801B108474268002A04D043
:1053000000F1080183691046184770472DE9F843FA
:105310001C4615460E468046089F00F02FF887F081
:105320000100009023462A463146404600F07EFCAC
:10533000844202D00120BDE8F8830020FBE700F0A2
:10534000E3BC00F0C2BC00F0A6BB2DE9F8431C464C
:1053500015460E468046089F00F010F887F00100C1
:10536000009023462A463146404600F0FBFC84422A
:1053700002D00120BDE8F8830020FBE770B5054DA1
:1053800004462868A04204D02046616800F0DAFB99
:105390002C6070BDE000001010B5044600F0E0FB8A
:1053A0000248606002480460204610BDA0860100EB
:1053B000E000001000EB0110203000F04EB910B5F5
:1053C0000C46183001F006F8204610BD70B50E46A8
:1053D0001546194600F064F80D490160343141600A
:1053E000022310220B49203000F0C5F9A0F120045F
:1053F0002A4608383146054600F040FF4FF4165063
:10540000206422460449284600F0D8FF204670BD9B
:10541000C87200009D510000B553000010B504464D
:10542000074820603430606002231022054904F1EF
:105430002000FDF7D5FE2046BDE8104000F04EB834
:10544000C8720000C9560000002070470020704755
:10545000002070472DE9F0410E4607460C468D1896
:1054600007E0386814F8011B426A38469047401C30
:1054700001D0AC42F5D1A01BBDE8F08100207047FF
:105480000FB470B5054606AC4069FDF7C6FC224670
:1054900068690599FAF724FF70BC5DF814FB0000F9
:1054A0003EB500F073F8044609482060343060606F
:1054B000224608A16846FDF769FA07A16846FDF78C
:1054C00012FD00216061FDF735FD20463EBD000064
:1054D0000C7300003A257000772B000010B50446CD
:1054E00005482060343060606069FDF72DFD20467E
:1054F000BDE8104000F05AB80C730000007B704704
:1055000070B506460B480D4604680EE0A06858B119
:105510002A463146FDF789FD30B9A068FDF766FDE2
:10552000A84201D1204670BD6468002CEED1002055
:1055300070BD0000E8000010064B0360816002733C
:1055400021B105490A684260086070470021416046
:105550007047000050730000E80000100949016026
:105560008168002905D0084A1168814203D1416849
:105570001160704711464A688242FBD142684A6016
:105580007047000050730000E800001010B5054A95
:1055900004C00022FFF7D0FF034940F8041D2C315E
:1055A000416010BD9C7200006073000010B5001DCA
:1055B000FFF7D4FFBDE81040001FFFF787BE10B50E
:1055C000044600F004F8002800D0606810BD10B553
:1055D0004068002804D0FFF791FF012800D0002088
:1055E00010BD10B5044600F00CF8002803D0606828
:1055F000002800D0001F10BD4068002800D0012006
:10560000704710B54068002803D0FFF777FF08B156
:10561000002010BD012010BD0068704710B5044681
:1056200000202060606008782F280DD1487858B19C
:105630004B1C00211A46236010782F2806D038B161
:10564000491C521C2260F7E7204610BD501C206008
:105650001846FFF755FF6060F6E770B50546002471
:1056600005E0686850F82400FFF744FE641CE86811
:10567000A042F6DC70BD70B5054672B60024264621
:1056800008E0686850F8240000F02CF8686840F8DA
:105690002460641CE868A042F3DCEE6062B670BD72
:1056A00070B50446074820600020C4E90210880055
:1056B000054600F01BF82A460021FDF733FD606027
:1056C000204670BD9C73000010B50446044820605D
:1056D0002046FFF7D0FF606800F004F8204610BDB8
:1056E0009C73000010B5FAF7D4FD10BD10B500F0A2
:1056F00001F810BD10B5040007D1012405E0FAF748
:10570000F9FD006800B9044880472046FAF792FD89
:105710000028F4D010BD0000D93C0000490050EA38
:10572000C12018BF04204A0D18BF40F0010040F20C
:10573000FF72B2EB515F08BF40F00200012808BFC2
:10574000052070472DE9F041074690460E4600259A
:105750001020FAF76FFD04000BD0C4F80C80C4E9E8
:105760000176FDF74FFD0168216004602846BDE821
:10577000F0810125FAE72DE9F0411C4617460E009D
:10578000804606D0054602E02846B0473D44641EE8
:10579000FAD24046BDE8F0812DE9F0410646FDF71A
:1057A00031FD804613E026B1E068B04201D02546C5
:1057B0000EE020682860D4E90101D8F8007088471D
:1057C0002046FAF766FDD8F80000B84200D04546FA
:1057D0002C68002CE7D1BDE8F0810020FEF72CBA40
:1057E00002486A4620F0070070470000C30200101C
:1057F00030380A2801D2012070470020704700008D
:10580000032801DA002070470649002201EB8001DD
:1058100051F80C0D0A6010B10168496808474FF053
:10582000FF30704748010010032801DA002070475C
:10583000054901EB800050F80C0C10B10168896932
:1058400008474FF0FF30704748010010032801DA85
:1058500001207047054901EB800050F80C0C10B195
:105860000168C96808474FF0FF30704748010010D1
:105870002DE9FC410E4605463749FDF75FFCB0B106
:1058800035492846C91DFDF759FCA8B132492846BB
:105890000F31FDF753FC98B1304F00244FF0FF3823
:1058A00057F8240080B1641C102CF9D352E0FFF7A4
:1058B000DFFC0020BDE8FC81FFF7DAFC0120F9E7FE
:1058C000FFF7D6FC0220F5E7102C43D228783A28BF
:1058D00010D029466846FFF7A1FE6846FFF78CFE08
:1058E000B8B36846FFF78DFE0028684609D0FFF779
:1058F00078FE29E06A461AA12846FDF7ADF900981E
:1059000022E0FFF75CFE20B3B10701D5022508E0D5
:10591000710701D5012504E0310701D5092500E013
:10592000002516F00C0F01D045F40075710701D564
:1059300045F4806506466846FFF76EFE014630680E
:105940002A4683683046984718B147F82400E01C7F
:10595000B0E7FFE74046ADE73270000048010010B5
:105960003A257000032801DA00207047064A02EB4E
:10597000800050F80C0C18B1026813690022184717
:105980004FF0FF30704700004801001070B5154619
:105990000E4603280FDA0F48006808B9FFF768FCC5
:1059A000002404E0315D0C4800F014FD641CAC429E
:1059B000F8D3284609E0094901EB800050F80C0CA7
:1059C00028B101680B6831469847281A70BD4FF01E
:1059D000FF3070BDD0000010D8000010480100104A
:1059E000044600F03BFA08B100F0F4FA0CB100F004
:1059F000F3F9FEE78A68002A01DCFDF779BE521E42
:105A00008A604A68C0B2531C4B601070704739B14D
:105A1000012904D181680A68406802430A6070471E
:105A200081680A6840688243F8E770B50446164604
:105A30000D46481C1DD02846256000F01BF860600C
:105A400025F01F0000F11801E160091D21610839EE
:105A50006161A06031462046FFF7D9FF1EB1012EDB
:105A600007D1022100E003212846BDE8704000F084
:105A700013BA70BD10B50446002100F0F3F904F02C
:105A80001F010120884010BD426809B1C06800E0D4
:105A900000690260704710B5C9B2002200F045F8F5
:105AA000182807D0282805D0402803D0B82801D0CE
:105AB000002010BD012010BD08B5002101230A46B9
:105AC000009100F001F808BD10B5490141EA02114A
:105AD000029C006841EAC30141EA8401816110BD72
