:020000040000FA
:1000000000800010950100009D0100009F0100008C
:10001000A1010000A3010000A501000000000000F4
:10002000000000000000000000000000A701000028
:10003000A901000000000000AB010000AD010000BC
:10004000AF010000AF010000AF010000AF010000F0
:10005000AF010000AF010000AF010000AF010000E0
:10006000AF010000AF010000AF010000AF010000D0
:10007000AF010000AF010000AF010000AF010000C0
:10008000AF010000AF010000AF010000AF010000B0
:10009000AF010000AF010000AF010000AF010000A0
:1000A000AF010000AF010000AF010000AF01000090
:1000B000AF010000AF010000AF010000AF01000080
:1000C000AF01000000F002F800F03AF80AA090E852
:1000D000000C82448344AAF10107DA4501D100F003
:1000E0002FF8AFF2090EBAE80F0013F0010F18BF96
:1000F000FB1A43F001031847B0060000D0060000C9
:10010000103A24BF78C878C1FAD8520724BF30C843
:1001100030C144BF04680C60704700000023002415
:1001200000250026103A28BF78C1FBD8520728BF07
:1001300030C148BF0B6070471FB500F03DF81FBDD0
:1001400000F0C8F81146FFF7F7FF00F047F800F09D
:10015000C9F800000DE001210B4800F0ADF80B4894
:1001600000F01EFA0021084800F0A6F8074800F049
:1001700017FAF0E770B5044D054C012221462846D8
:1001800000F0CCF800BF70BDD8000010CDCC4C3EC4
:100190001AC009200648804706480047FEE7FEE7E8
:1001A000FEE7FEE7FEE7FEE7FEE7FEE7FEE7FEE727
:1001B0001D020000C500000070B5064C7C44064DD1
:1001C0007D4403E0206820448047241DAC42F9D1DF
:1001D00070BD0000080600000806000010B500F021
:1001E00015F9BDE81040FFF7B5BF0000F0B50A4DA6
:1001F0002B682A685AB96E061C463346002254F80A
:10020000227043F82270521C312AF8D32E6003EB7F
:1002100080000164F0BD000008ED00E0244810B546
:100220002021C0F8A011D0F8A011890603D5D0F87C
:10023000A0114906FBD500F180000221C0F884100E
:100240004FF00002C0F82821C0F82C214FF0010126
:10025000C0F88C104FF00B0343604FF0AA03C3604B
:100260004FF05504C4600160C360C460A0F1800019
:10027000D0F888104901FBD5032140F8801FC360E6
:10028000C4608038D0F8881011F0407FFAD0052182
:10029000C0F808110749C0F8C410C0F8C8210168A7
:1002A00043F23A0221F470411143016010BD000095
:1002B00000C00F40DE87280430B50A4613461BB144
:1002C000C56844682C6002E0056944682C6000BF82
:1002D00000BF30BD02486A4620F0070070470000AA
:1002E000F7000010044600F007F808B100F0DCF851
:1002F0000CB100F049F8FEE700F0CEB8FFFFFFFFB9
:1003000039B1012904D181680A68406802430A6052
:10031000704781680A6840688243F8E770B5044610
:1003200016460D46481C1DD02846256000F01BF8D7
:10033000606025F01F0000F11801E160091D2161D6
:1003400008396161A06031462046FFF7D9FF1EB130
:10035000012E07D1022100E003212846BDE87040AC
:1003600000F070B870BD10B50446002100F050F8E0
:1003700004F01F010120884010BD426809B1C06827
:1003800000E000690260704798B001221E4968468B
:10039000FFF7C4FF1C490122891C06A8FFF7BEFF16
:1003A00019490122C91C0CA8FFF7B8FF1649012200
:1003B000491D12A8FFF7B2FF01216846FFF7DDFFD4
:1003C000002106A8FFF7D9FF00210CA8FFF7D5FFF1
:1003D000012112A8FFF7D1FF962000F0EDF80021CF
:1003E0006846FFF7CAFF012106A8FFF7C6FF0121F3
:1003F0000CA8FFF7C2FF002112A8FFF7BEFF96204E
:1004000000F0DAF8D8E7000032C009207047000099
:1004100010B5421C10D0094A104403090007C20E4F
:10042000074800EB8300036803249440A343036060
:10043000036891400B43036010BD00000040F6DFED
:1004400000C00240F0B5421C21D0114A114E1044A8
:10045000420906EB820200F01F05976EC1F380038C
:1004600003FA05F4A7439766956E25439566002B1E
:100470000DD103090007C20E06EB8300036C0324B1
:100480009440A3430364036C91400B430364F0BDA9
:100490000040F6DF00C0024002480068C0F30000E0
:1004A00070470000F0ED00E01FB569461820ABBEB4
:1004B00004B010BD014901200860704700400940A8
:1004C0000248416921F00101416170470040094043
:1004D000114810B5016800291DD1012202600F48A2
:1004E000016841F4000101600D48002101670D49D8
:1004F00009688908022343600B4BB1FBF3F1491EE5
:10050000C160426009490420FFF770FE4FF0E0200F
:100510001021C0F8001110BDCC000010C4C00F4065
:1005200000400940C800001040420F0031050000A3
:1005300010B5FFF7BFFF0D4C206870B100F018F840
:1005400021680A68101A00280BDC8868206062683D
:10055000002AF1D048689047EEE7BDE81040FFF769
:10056000AFBF0868BDE8104000F010B8D000001020
:10057000044810B5006808B9FFF7AAFF0248806870
:1005800010BD0000CC000010004009400349886104
:10059000486940F001004861704700000040094090
:1005A00010B5044900F034F800F016F8BDE810402A
:1005B00000F007B8002474494FF47A714843AFF350
:1005C000008070B50446FFF7D3FF0546FFF7D0FF64
:1005D000401BA042FAD370BD41000B0ED3F19E0226
:1005E00008D950F400034FEA032323FA02F048BF6E
:1005F0004042704710B500F08CF800BF499224804B
:10060000002070476FF0004282EA2000704700002F
:100610004FF47F0C1CEAD0121EBF1CEAD11392EAE1
:100620000C0F93EA0C0F00F0478090EA010F48BFCF
:1006300042F480724FF0004C4CEA00204CEA012159
:1006400002EB0302A0FB0113A2F50002002918BF70
:1006500043F001035B0028BF4FEA330342EB224221
:100660005FEA132C4CEBC2502EBFBCEB436FB2F5CC
:100670007C0F70474FEA036CBCF1004F08BF20F0BD
:100680000100B2F57C0F38BF70470BD582F0FF0236
:1006900012F5803FC8BF704700F1C040D8BF00F0DE
:1006A0000040704700F5000C5FEA4C0C48BF7047F3
:1006B000B0F1C04000F073B890EA010F0CEAD1131A
:1006C00048BF42F48072624538BF634504D280EA75
:1006D000010000F00040704710B500F01AF800BFAC
:1006E0008900013E00F007B800F009B85FEA410C4C
:1006F0005FEA1C6C08D080EA010000F050B85FEAA5
:10070000400C5FEA1C6CF6D14FF00040A0F5800071
:1007100070470EF1020E2EF0030E5EF8044B2442D9
:1007200004D44FEA4102B2F17F4F11D84FEA40039F
:10073000B3F17F4F0CD80ED14FEAD07CB2F17F4F8E
:100740000CEB4C0C0CF1020C08BF4CEBD17C04E020
:100750004FF0080C01E04FEAD17C0CEB4C0324FA7B
:1007600003F404F00704B4F1040C06D20EEB840C7D
:10077000BDE810404CF0010C6047DFE80CF00708C2
:1007800002024FF00040A0F5800010BD0846420074
:1007900018BFD2F1807288BF00F0004010BDFF2169
:1007A00041EAD050C0057047CC070000C8000010D7
:1007B0001000000000010000DC070000D80000105D
:1007C000180000001C010000ADF9FFFF00D8B805BB
:0C07D0000000000000000000000000001D
:04000005000000C532
:00000001FF
